:1000000000800020F52600002127000021270000A5
:1000100021270000212700002127000021270000C0
:1000200021270000212700002127000021270000B0
:1000300021270000212700002127000021270000A0
:10004000D91A000021270000950700002127000091
:100050002127000021270000690600002127000059
:10006000212700002127000021270000390D000072
:100070002127000021270000212700002127000060
:100080002127000021270000212700002127000050
:100090002127000021270000212700002127000040
:1000A0002127000021270000610300002127000014
:1000B0002127000021270000212700002127000020
:1000C0002127000021270000212700002127000010
:1000D0002127000021270000212700002127000000
:1000E00010B5054C237833B9044B13B10448AFF372
:1000F00000800123237010BD0001002000000000DB
:100100009037000008B5064B1BB106480649AFF30F
:1001100000800648036813B1054B03B1984708BD3A
:10012000000000009037000004010020740000204F
:1001300000000000154B002B08BF134B9D46A3F594
:10014000803A00218B460F461348144A121A03F0D6
:10015000FBFA0F4B002B00D098470E4B002B00D022
:1001600098470020002104000D000D48002802D00F
:100170000C48AFF3008003F0C1FA2000290000F022
:100180004FFC03F0A7FA00BF000008000080002029
:10019000000000000000000000010020140C0020FE
:1001A000000000000000000008B51F48012101F018
:1001B00063F9002213460220062101F0FBFE042011
:1001C00002460221002301F0F5FE0420024603212D
:1001D000002301F0EFFE032006210422012301F099
:1001E000E9FE022005210B22012301F0E3FE02209B
:1001F00004210B22012301F0DDFE01210A46032028
:10020000002301F0D7FE00210B460422032001F059
:10021000D1FE0420012101F089FE0320012101F01B
:1002200085FE002008BD00BF00D2040028B10128CF
:100230000FD0022816D001207047012303FA02F2E2
:1002400001EBC101890001F1804101F5C0410A6162
:100250007047904001EBC101094B89000B44586085
:1002600000207047012303FA02F201EBC10189006B
:1002700001F1804101F5C0418A610020704700BF53
:10028000106000400000000070B5314B84B00024C5
:100290008DF806408DF80740996E2E4D012241F4ED
:1002A00000718DF801408DF802408DF803408DF803
:1002B00004408DF805408DF808408DF809408DF810
:1002C0000A408DF800209966AB6A0328AB62EB6A9E
:1002D00043EA0203EB621CD0022802D9104604B0A4
:1002E00070BD2846214646F21F0202F04FF96946CA
:1002F000184802F05DF9184B4FF080621A60012136
:10030000144802F04DF9032000F0DEFB002004B099
:1003100070BD124B186802F039FC0BA3D3E900231F
:1003200002F0AAFC02F0BAFE0646214628463246F2
:1003300002F02CF9C6F57F4228462146FF3202F032
:1003400025F9D4E7AFF3008096438B6CE7FB1340AD
:1003500000800C400020084000E100E07001002017
:1003600070B582B072B6424C03202368414E5A1CCD
:100370001CBF0133236000F0A7FB3F4B0122B26298
:100380003E4D98683E492B68C0F340000860002B42
:1003900039D13C492A60F3600E68304602F0F6FB22
:1003A0002FA3D3E9002302F067FC02F077FEB6F535
:1003B0007A7F3CBF800801302E4BC0F57F40FF3074
:1003C000314E18613378002B33D0012B39D0022BFA
:1003D0003AD0012000F078FB2C4A40F28F13002025
:1003E0008DE80C0001210246294B01F0B5FB294B99
:1003F00001225A6023681E4A1BB1013B136003B9F6
:1004000062B602B070BD012BF4D11E4A00232B60EE
:100410001068F36002F0BAFB13A3D3E9002302F0E3
:100420002BFC02F03BFE8008C0F57F43FF333361B5
:10043000E0E700F0FDFB01222B683270012BD9D1DF
:10044000C7E702233370C4E7032000F03DFB00F050
:1004500027FC00222B683270F0E700BFAFF300806A
:10046000FCA9F1D24D62703F96438B6CE7FB1340C1
:100470006C01002000200840001000401C010020FA
:100480007401002070010020200100202420004081
:100490007801002000200040194B10B55A68012057
:1004A00042F002025A6000F031FB002315481A4660
:1004B00030F81310013309B2B3F5C87F0A44F7D1FD
:1004C0001149D01781FB0232C0EBE21000F0ACF909
:1004D0000E49044603F0B6F820B920460C4903F053
:1004E000CFF830B1002004210322BDE81040FFF70F
:1004F0009DBE012004210322BDE81040FFF796BEF7
:1005000000200040780100201F85EB510000704161
:1005100000000C422DE9F041012184B00A46002080
:1005200001F098FA4848022101F01EF847480121DD
:1005300000F0A2FF464C4748012100F09DFF002338
:1005400004A9012501F80C3D20468DF805308DF8F1
:1005500006308DF807308DF809308DF80A308DF8A7
:100560000B308DF80C308DF80D308DF80E308DF885
:10057000085002F01DF84FF40043E360204629467E
:1005800002F00EF8344B354A55605D60E3681BB1EC
:100590002046C368002BFCD12F4C304D0023022293
:1005A000676A18466E6A19466A6062606B62012269
:1005B000636201F04FFA01210A46052001F04AFA70
:1005C00006EB07472048224E092100F0CDFF4FF4EB
:1005D0007A73F3603046012101F0E2FF01236B6082
:1005E0006360F3681BB13246D368002BFCD13846F8
:1005F00002F032FE184C194DD4F824806E6A07467A
:1006000006EB084002F028FE0146384602F030FFB3
:10061000134902F079FE03F03DF8124A02231060FC
:1006200000216B6001226360052001F013FA074886
:10063000002100F021FF0748002100F01DFF0020ED
:1006400004B0BDE8F08100BF0200180000430200C2
:100650000020084060261200000401400000014014
:1006600000007A447001002072B6084A08491368F5
:100670000120B3F1FF3F04D0886113602BB962B64B
:1006800070476FF001038861136070476C010020B0
:100690000010004030B5264887B00121002400F04A
:1006A000EBFE2448012100F0E7FE1F2321462248EB
:1006B0008DF807308DF804408DF805408DF8064020
:1006C0008DF808408DF809408DF80C408DF80D40EC
:1006D0008DF80E408DF80F408DF810408DF81140C8
:1006E0008DF812408DF813408DF8144000F06AFC2C
:1006F0008DF80800204600F091FC104D8DF80700A1
:1007000001A9284600F0C0FB28460822012303A9BE
:100710008DF80E408DF80F408DF80D408DF81020AB
:100720008DF8143000F0E8FB204607B030BD00BF64
:10073000408104000002050098E00E000020004007
:10074000022808B503D9032814D0012008BD0121CF
:100750000A46002001F07EF90B48022100F004FF58
:100760000A48012100F088FE0948012100F084FEBA
:10077000002008BD01210A46052001F06BF902485E
:10078000092100F0F1FEEBE702001800004302002F
:100790006026120072B6084A084913680120B3F1B6
:1007A000FF3F04D0886113602BB962B670476FF0C9
:1007B00001038861136070476C0100200000014054
:1007C00010B5144888B0012100F056FE12480121EE
:1007D00000F052FE1148012100F04EFE00240222DA
:1007E000012369460E48049406948DF813208DF871
:1007F0001A300094019402948DF80C4005948DF801
:100800001C4001F02BFF074804A901F027FF2046F8
:1008100008B010BD408104000052040000620400D2
:1008200000000140000401400E4B0F4A1B6870B5E8
:100830000646C3F30740156802F00EFD0446280D76
:1008400002F00AFD0546304602F00AFD0146284640
:1008500002F050FC054902F00BFE0146204602F072
:1008600049FC70BDB081E00FBC81E00FD7A3C8C0C8
:1008700070B5012188B0184800F0FEFD174B002428
:1008800003A804938DF80C40154E01F0F1F9154BB7
:10089000012520464FF4002205A95C6007931E60E5
:1008A0001D7206928DF814408DF8155001F098F9DC
:1008B00020460323294601AA8DF804508DF80650DE
:1008C0008DF807408DF808408DF8053001F0B2F939
:1008D000204608B070BD00BF00030200000A0020DF
:1008E0009904000048090020F0B5154885B00121A1
:1008F00000F0C2FD1348012100F0BEFD124D134B64
:10090000134F03260FCB8DE80F002F63694628464F
:10091000AE6301F0A9FBAB680BB120236B600A4BFF
:100920000C4D0D490D4C002072222870207008706B
:100930005A611A6842F017021A6005B0F0BD00BF94
:100940004081040000C2040000A40040743700008D
:1009500024000100010C0020020C0020000C0020EB
:10096000F0B587B049B3012901D007B0F0BD002A26
:1009700045D00178234B012A19701CBF417859706A
:100980002149224F91F800E0214E7225012421488F
:1009900069460193ADF80820ADF810E03A7003966F
:1009A000ADF80050ADF8024001F0B4FC194801F078
:1009B0009FFB0128FAD007B0F0BD134990F800C0A2
:1009C000154B91F800E0154F114E72250424114883
:1009D0006946ADF8082083F800C00193ADF810E037
:1009E0003A700396ADF80050ADF8024001F092FC69
:1009F000084801F07DFB0128FAD007B0F0BD014B9B
:100A0000BEE700BF280100200000002001000020F8
:100A1000040C002000A4004024010020020000205B
:100A200010B5174B82B01C68684601F0FDFDB4F1AB
:100A3000805F03D39DF80030032B18D0032000F013
:100A400043F8FFF7BDFEFFF765FD0320FFF778FED3
:100A50000320FFF7A9FBFFF747FFFFF71BFEFFF798
:100A600007FF0320FFF710FC00F00EF8FCE7054B32
:100A70001A6822F0500242F010021A60DEE700BF4E
:100A8000FC81E00FC0800C400D4B1A68002A00DD8D
:100A900070475A68002A06DD0A4B1A6922F00402E0
:100AA0001A6130BF70479A68002A05DCDB68002BAA
:100AB000EEDD012001F0D4B9012001F085B900BFBD
:100AC0002C01002000ED00E010B472B60D4A13684E
:100AD000591C0AD00C4951F82020013241F820203D
:100AE00003B962B65DF8044B7047074B6FF0010421
:100AF00053F820101460013143F820105DF8044BC6
:100B0000704700BF6C0100202C01002010B472B6A9
:100B10000A4A1368591C0A4918BF013351F820408A
:100B2000013B002CC4BF04F1FF3441F820401360A6
:100B300003B962B65DF8044B704700BF6C0100203A
:100B40002C010020F8B5384C01210D4680262046A6
:100B50000222002726706770FFF702FF032320465A
:100B60002946022226706370FFF7FAFE8123204691
:100B70002946022223706570FFF7F2FE2B4B1E7888
:100B800066B1012E2DD0862514232570637026486A
:100B900001210222BDE8F840FFF7E2BE0F23204604
:100BA00029468227022263702770FFF7D9FE83232C
:100BB00020462946022266702370FF26FFF7D0FEEA
:100BC000842320462946022223706670FFF7C8FE60
:100BD000852329462046022266702370FFF7C0FE57
:100BE000D1E7822320463146022223706770FFF747
:100BF000B7FE832320463146022223706770FFF739
:100C0000AFFE84232046314602222370677085257B
:100C1000FFF7A6FE082331462046022225706370A6
:100C2000FFF79EFEAFE700BF480100204C01002007
:100C300010B5022082B005210B22012301F0BAF980
:100C4000022004210B22012301F0B4F901210A46FC
:100C50000320002301F0AEF9002104220B460320FB
:100C600001F0A8F90C4B0124DC672146022001F0B9
:100C70005DF9FFF767FF22462146009401940320A7
:100C8000002301F061F9054B4FF40062C3F88021A5
:100C90001A6002B010BD00BF0060004000E100E03B
:100CA00030B50121002483B023460A460094019404
:100CB000032001F049F91D4B80251846012102222D
:100CC0005C701D70FFF74CFE194B4FF40062C3F8C7
:100CD00080210220C3F88020012101F027F90320A0
:100CE000012101F023F91348012520231021C0F828
:100CF00080502246C3652346C1650220052101F0CC
:100D000059F9224623460220042101F053F92946CD
:100D100022462346032001F04DF921462246234670
:100D2000032003B0BDE8304001F044B94801002081
:100D300000E100E0006000402DE9F84372B64B4D41
:100D400001212B68C0245A1C18BF0133484A18BF20
:100D50002B60D2F81401474BC2F81C0118460A4612
:100D60001C70FFF7FDFD444B1A687AB901221A6026
:100D7000424F3C78BCB1012C44D02B683B4A1BB19C
:100D8000013B136003B962B6BDE8F883012AEFD1D5
:100D90002A6800211960354B002AF5D0013A1A6003
:100DA000002AF1D1EFE7364E4FF00108822330469A
:100DB00041460222337087F800807470FFF7D0FD3F
:100DC000832330464146022233707470FFF7C8FD1A
:100DD0008423304641460222337074708527FFF722
:100DE000BFFD082330464146022273703770FFF77B
:100DF000B7FD244B20460421022283F80080FFF730
:100E000015FABAE71E4E042102222046FFF70EFA19
:100E10004FF0000884234FF0FF093046214602229C
:100E2000337087F8008086F80190FFF799FD8523DD
:100E3000304621460222337086F801908227FFF760
:100E40008FFD0F2330462146022273703770FFF763
:100E500087FD8323214630460222337086F80180C5
:100E6000FFF77EFD074B83F8008086E76C010020CA
:100E7000006000403C0100204401002040010020AF
:100E8000480100204C01002070B50E7905460C4643
:100E900016480EBB00F0E8F9154B164E0344A6FBAE
:100EA0000323DE0D03D0013E360206F4FE460A237C
:100EB0006B606378E1782078A2781B01090443EA2B
:100EC0000063134301F4FE0162790B4333430AB11B
:100ED00043F008032B6070BD00F0C6F936020348EA
:100EE00000F0C2F906F4FE46E1E700BF40810400CD
:100EF0003F5DC600A5E830A502234360F0B4446B13
:100F00008A7824F4FE4424F07F04062A54D8DFE8CB
:100F100002F02B353F4953530400294BDB6803F0A3
:100F20007F0C0B784D780F791B0743EA0553CE7879
:100F30008D794CEA040443EA0723446343EA061329
:100F40000DB143F08073CC790CB143F004034C79BC
:100F50000CB143F00203097A09B143F0010343EAFB
:100F60000243C360F0BC7047154B5E685D6806F4D1
:100F7000FE4305F07F0C4CEA030CD2E7104B5D6892
:100F80005B68C5F3066CC3F3064343EA0C2CC8E761
:100F90000B4B9E689D6806F4FE4305F07F0C4CEAFF
:100FA000030CBEE7064B9D689B68C5F3066CC3F354
:100FB000064343EA0C2CB4E74FF0000CB1E700BF46
:100FC000B081E00F38B5124B044698420ED8B0F508
:100FD000FA4F1AD247F6FF454FF4FA4451B129446B
:100FE000B1FBF4F47CB1013CE0B238BD1C46094DC4
:100FF0000029F4D1084800F037F901462944B1FB33
:10100000F4F4002CEFD1204638BD451EE6E700BFC2
:10101000405DC6003F5DC6004081040008B520B1B8
:101020000A4B984207D91F2008BD094800F01CF957
:101030000028F5D108BD074B00F5742000F23F20D1
:10104000A3FB0020800C0138C0B208BD0048E801B5
:101050004081040083DE1B4308B500F00F03013B11
:10106000062B7DD8DFE803F03C4C5B7C7C6A0400F7
:10107000484BDB6A03F46033B3F5803F74D0B3F5BB
:10108000003F6FD0B3F5004F0CBF08230123424A45
:10109000904260D0414A904203D13E4B9B6AC3F3D9
:1010A0008103032B1AD8DFE803F0130F0B0201F0C2
:1010B00039FB3B4B3B4A1B6812680133D84008BDE3
:1010C000BDE8084001F01ABCBDE8084001F00EBCC4
:1010D000314B98424CD0314B984252D0002008BD41
:1010E0002C4BDB6A03F47053B3F5805F3AD0B3F551
:1010F000005F39D0B3F5006F0CBF04230523C6E7AA
:10110000244A936A03F00303022BC0D0032B2DD093
:10111000012B27D0936ADA030ED50923B7E71D4ABE
:10112000936A03F00C03082B1ED00C2B1ED0042B4B
:1011300018D0936ADB02F0D40123A8E7154B1B6893
:1011400013F080531BD0144AB3F1805F0CBF082307
:10115000012390429ED10F4B9B6A03F00303A0E74B
:10116000002394E7032392E7022390E706238EE708
:10117000084B10209B6A33FA00F006D108BD072304
:1011800085E7044B14209B6AF5E7BDE8084001F0B1
:10119000B1BB00BF00800C400200180003001A0021
:1011A00078009043A000904300F00F00013806281B
:1011B0004ED8DFE800F01424334D4D420400294B93
:1011C000DB6A03F46033B3F5803F43D0B3F5003FEF
:1011D00042D0B3F5004F0CBF082001207047214BCF
:1011E000DB6A03F47053B3F5805F35D0B3F5005F6D
:1011F00030D0B3F5006F0CBF042005207047194BA9
:10120000986A00F00300022825D0032826D0012880
:1012100022D09B6ADA030ED509207047114A936ADF
:1012200003F00C03082B15D00C2B17D0042B13D074
:10123000936ADB02F0D4012070470A4B1B6813F05D
:1012400080530DD0B3F1805F0CBF082001207047A0
:101250000020704702207047032070470620704727
:101260000720704700800C4000F47810B0F5A01FF4
:1012700008B500F093800ED8B0F5402F7ED021D86D
:10128000B0F5003F76D0B0F5802F00F0B080002898
:101290007BD0002008BDB0F5001F00F09A8039D83F
:1012A000B0F5C01F61D0B0F5D01F72D0B0F5B01F3F
:1012B000EFD16448FFF7D0FE634B1B6FC3F30113FC
:1012C000D84008BDB0F5801F37D0B0F5901F6ED064
:1012D000B0F5602FDDD15C4B5B6903F4E063B3F5DF
:1012E000007F00F09E8040F28A80B3F5C06F00F06E
:1012F000A480B3F5E06F00F09E80B3F5407FC8D1C5
:10130000524B534AD86C534BB0F1985F34BF1046E0
:10131000184608BDB0F5181F18D0B0F5201F4FD0E3
:10132000B0F5101FB5D14C48FFF796FE464B9B6EAB
:10133000C3F301330433D84008BD4748FFF78CFEA0
:10134000414B9B6EC3F30313D84008BD4248FFF7DF
:1013500083FE3D4B9A6EDB6FC2F30132D04003F047
:1013600007030133B0FBF3F008BD3B48BDE808407C
:10137000FFF772BEBDE8084001F0D4B9324A1368E5
:1013800013F0805346D0002B83D0BDE8084001F015
:101390003DBA2C48BDE80840FFF75EBE2948FFF77C
:1013A0005BFE294B1B6F03F00303D84008BD2A489E
:1013B000FFF752FE244B9B6EC3F30323D84008BDB6
:1013C0002548FFF749FE204B9B6E03F00303D840EE
:1013D00008BD2248FFF7E8FE032817D00828D4D01C
:1013E00002287FF456AFBDE8084001F087BA01F04B
:1013F0000DFA154B9B6803F00F03D84008BDF3B1FD
:10140000B3F5807F7FF445AF154808BDBDE80840BF
:1014100001F06CBA536903F4E063B3F5007F7FF425
:1014200062AF0A4B0F4AD86C0F4BB0F1985F34BFD4
:101430001046184608BD0D4808BD0D4808BD0D48AA
:1014400008BD00BF03001A0000800C40B081E00F0F
:1014500040420F00804F12000200180007232000B6
:10146000C0D8A700C0CF6A0040B56400406F4001FB
:10147000003FAB01809FD50070B5C0F30323013B53
:1014800082B00446092B11D8DFE803F0221924109A
:10149000101D05101020274A1020274DC4F30434D6
:1014A0006B6DDB0704D522449200116002B070BD61
:1014B0002B6D1842F7D02B6D1842F9D1F3E71F4A74
:1014C000C4F30434EFE71E4A0120E6E71D4AF7E7BC
:1014D0001D4AF5E7019101F025F91C4B0199DA6CE1
:1014E000C2F307424A2A0FD0792A0DD0184B482A56
:1014F00018BF0023174A9842174D94BF00230123B9
:101500001360164A2B60DBE7154A114D1669936983
:10151000D26906F03F06C2F3031242EA062603F040
:10152000F003104A3343B3F5017F34BF2B46134613
:10153000E0E700BF0003E41000800C402002E4104C
:10154000C002E410C003E4104000E410B081E00FDA
:101550000048E80178009043A00090430002E410A6
:10156000D0FF0FE000366E0138B500F00F04631EA7
:10157000062B52D8DFE803F07A626251515D5600C3
:10158000012202FA03F313F0130F00F09680A84B28
:10159000984240F23C820420A64B5A6822F007028F
:1015A00002435A6009B10022DA63A34BA3485C628C
:1015B000FFF75AFEA24BDB6CC3F307434A2B00F044
:1015C0008881792B00F085819949482B18BF00212B
:1015D00088429C4A9C4B94BF0020012010601860F8
:1015E00000F09AFC01F09EF8924B41F67131DA6BF3
:1015F000D9635B6803F00703042B40F25D818C4BD9
:10160000984240F2EC8105208A4B596821F007018D
:10161000014359600AB10022DA638A4A8A4B126890
:101620001B6838BD03294ED0082973D002295AD02F
:1016300038BD072923D0082966D038BD01390829CB
:10164000F6D801A252F821F00B1800001318000080
:101650006118000031160000311600007B180000F0
:101660003116000031160000E91700000239032985
:10167000DED8DFE811F00A00B50056008D006E4B91
:101680001A6822F080521A60C7E7704A04244FF4A7
:10169000807369490B621368002BFCD000F03CFC9E
:1016A00001F0B0F8634B41F67132D96BDA635B68D5
:1016B00003F00703042B7FF663AF5D4B984240F2C3
:1016C0009681052068E75C4B4021614A19621368E6
:1016D000002BFCD000F020FC574A60235362D36AF1
:1016E0009903FCD599E7544B4FF48071574A19621E
:1016F0001368002BFCD000F00FFC4F4A40235362CC
:10170000D36AD803FCD588E74B4B1A6842F0805265
:101710001A6082E7484A20235362D36A1B04FCD52F
:101720007BE7474BDB6CC3F307434A2B00F0048194
:10173000792B00F001814748482B18BF0120404B0E
:10174000DB6CC3F307434A2B00F0E280792B00F0F7
:10175000DF80374A482B0CBF1346002383423A4AA6
:1017600038492CBF002301230B60136001F0B6F849
:101770002F4B02249842304B1A6896BF22F0600229
:1017800042F0600242F020021A60334A042380E7EC
:101790002B4BDB6CC3F307434A2B00F0F680792B0D
:1017A00000F0F3802B48482B18BF0120244BDB6C42
:1017B000C3F307434A2B00F0D480792B00F0D1808B
:1017C0001B4A482B18BF002290421E4B1E4994BF53
:1017D0000022012201241A600A6023461F4A58E7AA
:1017E0001B4A0324402354E74FF480114FF4803305
:1017F0000022022C00F082800F4A936A23F48013A7
:1018000023F00C030B43936207E700210B460A46C3
:10181000EFE7094B4FF480710C4A19621368002BF3
:10182000FCD000F079FB082100230222E1E700BF91
:101830000048E80100000C4000800C40004302001A
:10184000B081E00F78009043A0009043A40590433E
:101850009C0590430148E8018C0590438405904322
:101860006F4B40216F4A19621368002BFCD000F0C7
:1018700053FB042100230122BBE700F053FF6A4B16
:10188000DB6CC3F307434A2B00F09480792B00F004
:101890009180664D482B18BF0025A8426449654BCE
:1018A000654A94BF002001200125086018600C21C2
:1018B0001560002303229CE7012101FA03F313F0D2
:1018C000130F3FF49CAE594B984240F2988004208D
:1018D0009AE65A4B554A1C699969DB6904F03F0442
:1018E000C3F3031343EA042401F0F001544B2143F2
:1018F000B1F5017F34BF1146194669E648481343E4
:10190000816A21F4803121F003011943816284E668
:101910004A4A464B14699169D26904F03F04C2F304
:10192000031242EA042401F0F001454A2143B1F5D3
:10193000017F28BF134611E7404B424A1869996955
:10194000DB6900F03F00C3F3031343EA002001F01A
:10195000F0013D4B0843B0F5017F34BF10461846F7
:10196000EDE6364B314A1C699969DB6904F03F04A6
:10197000C3F3031343EA042401F0F001304B214385
:10198000B1F5017F28BF1A461EE72C4B2D4A186976
:101990009969DB6900F03F00C3F3031343EA0020B9
:1019A00001F0F001284B0843B0F5017F34BF104629
:1019B0001846FBE6214B1D4A1D699969DB6905F054
:1019C0003F05C3F3031343EA052501F0F0011C4B67
:1019D0000D43B5F5017F34BF15461D465DE71B4B32
:1019E0001B4903448B4294BF032002200CE6174B93
:1019F000174A0344934294BF03200220CCE5134BC3
:101A0000134903448B428CBF00200120FCE50F4B9F
:101A10000F4A034493428CBF00200120BCE500BF65
:101A200000800C409C059043B081E00F0048E80125
:101A300078009043A000904310089043D0FF0FE03F
:101A400000366E010148E80101366E01FFDB0BFF35
:101A5000FF23F40010B404282ED8DFE800F0271B81
:101A6000031F230016480823042469B1154B1C6288
:101A70001AB95DF8044B00F04FBA0368002BF8D197
:101A80000368002BF9D0F4E70E4A5DF8044B1362AB
:101A900000F042BA0C4880234024E6E70B480223BA
:101AA0000124E2E70A4820231024DEE709484FF426
:101AB00000734FF48074D8E75DF8044B704700BFA3
:101AC0008C05904300800C409C0590438405904316
:101AD00094059043A40590431C4B1D4A41F20C0110
:101AE00012685858996B2DE9F0470240194F9846F3
:101AF00002EA010422EA010A4FF00209FCB10025C2
:101B00000126E30717D506FA05F2D8F808303A603F
:101B100003EB0513DB6828466BB11A7AD3F800C0D3
:101B2000111C82F0010218BF01211A72BCF1000FD2
:101B300001D05A68E047640805F10105E1D1B9F127
:101B4000010901D05446D9E7BDE8F08700200C40D8
:101B500000300C4008300C40F0B4204F0401BD6848
:101B6000049E04EB050C059D00292FD1FF683C4421
:101B7000DCF80C7007B1397246B1A768C7F381670A
:101B8000032F1CBF05FA07F7F61926603BB1A668BC
:101B9000B60F032E1CBF05FA06F69B1963600123DE
:101BA00003FA00F00D4B9AB198610C4BA1B9186380
:101BB000A3680A4A23F47F5323F0370343F0010359
:101BC00043EA0515A5609062F0BC70476446CFE714
:101BD000D861024B0029EAD05863E9E700200C40A5
:101BE000124B30B49C688A6804EB00140D78E260F4
:101BF0000124844075B19C634D684B780B4A00F515
:101C0000886142F821503BB9094A30BC0244920035
:101C100013607047DC63EFE7054B41F208050344AE
:101C20009B0001215451196030BC704700200C40CA
:101C30006080E110F0B40D4BA9B9D968157893789C
:101C400057781679AD07D47845EA037545EA876574
:101C5000B20445EA036342EA843201EB0010134305
:101C60008360F0BC70479968E8E700BF00200C4033
:101C70002DE9F04F012183B006462C48FFF7FCFB0D
:101C800072682B4B2B4D01920124002240F6FF710C
:101C9000DFF8A4B0C5F8804041F20C005A6003F5AB
:101CA0008859D96141F2080A596241F20418D9628F
:101CB00041F2081C596341F20C17D96341F210112B
:101CC000DC641A5043F80AB0C9F8002041F2141B32
:101CD00043F8082041F2181A43F80C2041F21C196D
:101CE000DA5103F589585A5041F2241C41F2281761
:101CF00041F22C1143F80B2043F80A2043F8092045
:101D0000C8F8002043F80C20DA515A50019A4FF0DD
:101D1000004BC5F880412C6043F800B09A603278DF
:101D2000520122435A6003B0BDE8F08F0003020065
:101D300000200C4000E100E0FF0F0080204B45F642
:101D40000E01204A10B4D3F88440C3F884101268FE
:101D500040F2551102F470501140B0F5805F04F06C
:101D60000104196202F0010221D0B0F5005F16D023
:101D7000B0F5006F0BD012B9114B02221A621CB1E0
:101D80000F4B0022C3F884205DF8044B70471846BF
:101D9000C36A0B491B07FBD502234B62EBE71846CE
:101DA000C36A07499B05FBD504234B62E3E718464A
:101DB000C36A03491B06FBD503234B62DBE700BF65
:101DC00000800C40500100201F4B2049DB6A204A54
:101DD00070B40B6016691F4B46F0040616611E694D
:101DE0009A69DB6906F03F06C3F3031343EA06234F
:101DF00002F0F0021343B3F5827F0BD3B3F5017FFA
:101E000008D0002230BFA2B9C0B90B685B0518D555
:101E100070BC7047104B114C1D6801222C40C3F858
:101E200080405D6825F04605C3F8845030BF002A25
:101E3000EAD0094B1C605D600028E6D070BCFFF75B
:101E40007DBF70BC00F06EBC00800C4050010020D3
:101E500000ED00E0D0FF0FE000E100E09CF1FD00AC
:101E6000274B2849DA6AF0B40A60D3F884204FF48B
:101E70002075D20748BF002245F60E06C3F88460DD
:101E80001D6248BFC3F884201F4A204B156945F0E6
:101E9000040515611D699A69DB6905F03F05C3F307
:101EA000031343EA052302F0F0021343B3F5827FE4
:101EB0000BD3B3F5017F08D0002230BFA2B9C0B95F
:101EC0000B685B0518D5F0BC7047114B114C1D68B1
:101ED00001222C40C3F880405F6827F04607C3F812
:101EE000847030BF002AEAD0094B1C605F60002874
:101EF000E6D0F0BCFFF722BFF0BC00F013BC00BF7F
:101F000000800C405001002000ED00E0D0FF0FE009
:101F100000E100E09CF1FD00024A034BD26A1A6026
:101F2000704700BF00800C405001002000EBC00053
:101F3000800000F1804000F5C040036823F00303F7
:101F400019430160704700BFF0B407299DF8106085
:101F50009DF814401AD9A1F1080292000725954076
:101F60009040104A176827EA0505284310600125AC
:101F70008D400D4A0D480A4492001360C2F88060FB
:101F8000C0F81C51C2F80041F0BC70478A00072518
:101F900095409040064A176827EA050528431060D7
:101FA000E5E700BF04610040400883100060004086
:101FB00000610040F0B4B2BBC40007291DD88D00F9
:101FC0004FF00F0C0CFA05FC02FA05F72518AD00CE
:101FD00005F1804505F5C0456E6826EA0C063E43CE
:101FE0006E6042B98BBB012303FA01F120441D4B03
:101FF000800003445960F0BC704701F18045083D02
:10200000AD004FF00F0C0CFA05FC02FA05F725188D
:10201000AD0005F1804505F5C045AE6826EA0C0621
:102020003E43AE60DDE701268E40C4003BB125187B
:10203000AD0005F1804505F5C0452E61BDE72718C7
:10204000084DBF003D446E60B7E7012303FA01F17C
:102050002044800000F1804000F5C0400161F0BCE8
:10206000704700BF10600040F0B500F104764A7878
:10207000F6000446731C1B4800259B0082F00102F9
:10208000656320631A608D6883B048680F7BCDB1AB
:10209000236823F440732360236823F4407343EAE6
:1020A00007232360B8B1104BA0EB8500DB5D2268ED
:1020B00005FB03F52368B0FBF5F09B0700F1FF304B
:1020C00005D420610B78B600336003B0F0BD002862
:1020D00008BF0120F5E705480191FFF7C5F8019910
:1020E000E1E700BFCFFF010084370000408104001A
:1020F000854A2DE9F0039042034600F0C68002F5C0
:102100008062904240F0BC80804A94684025052659
:1021100000274FF0030C996A11F4C06F40F0CB8098
:102120001078082800F2B380DFE800F016284B573B
:102130003F906C730500C9051CD54FF4807018637F
:1021400009215078117040B200210128596300F034
:10215000A380BDE8F003704761882088CD0640F178
:102160009E80000A00F0060040F0F000012111708E
:10217000586259600120BDE8F0037047080600F17D
:10218000A7804906F6D561881D63C80600F1B680B0
:1021900089073CD51179072004EBC104218910700F
:1021A0000129E7D108225A60E4E7080600F190808F
:1021B0004806DFD561881D63490728D507231370BA
:1021C000D8E7080600F184804806D3D561881D63EE
:1021D00089071CD582F800C09DE760882188C50664
:1021E00043BF090A01F0060141F0F00101F0FE01D0
:1021F000440748BF41F001010424012014705860D5
:102200005962B7E7080663D44906B3D51D63167053
:1022100081E78806AED51179508804EBC104218985
:10222000DD69814242D96468461C56802554508835
:1022300081423BD9042401295C6002D001398842E3
:102240004FD01178092995D150787CE711795088C1
:1022500004EBC108B8F80890814546D80131C9B2ED
:1022600011716088578010F0040FB3D1C00702D4F9
:1022700001297FF650AF082002211070596079E7DC
:102280006FF00300BDE8F0037047214A3DE7FB20F3
:1022900009215070117056E75170084659E700F057
:1022A000FE008C0748BF40F001005FE70129E2D142
:1022B00008215960DFE78F0504D5FD205070092102
:1022C000117040E74E054ABFFE2050785070F6E787
:1022D0008025FF24082002211D635470107059606E
:1022E00048E7082159601178ACE7D8F80410441C7D
:1022F0005480085C0621586211703BE72178022067
:102300001070596236E700BF00A000406001002055
:1023100054010020994A2DE9F0039042034600F051
:10232000D78002F58062904241D1954A9868C507EE
:1023300044BF202058604888840702D50C89002CAF
:1023400035D0400730D400200125C02410719160A1
:102350001070508055705C609A6A8A48920648BF37
:10236000DA69864A4FF4FC6193421863596300F0BE
:10237000B18002F58062934219D1814A9468402568
:10238000052600274FF0030C996A11F4C06F40F046
:10239000C9801078082800F29F80DFE800F01684DA
:1023A000616C263248500D00088A0028CBD16FF0AE
:1023B0000300BDE8F0037047C90570D54FF4807085
:1023C00009211863507811708AE061882088CD0651
:1023D00000F18F8000F0FE008C0748BF40F0010044
:1023E000012111705862596059E0080600F1A78078
:1023F000480654D561881D6349071ED5072313700D
:102400004DE01179508804EBC108B8F80890814577
:1024100000F2A5800131C9B211716088578010F0B7
:10242000040F25D1C00716D4012914D8ACE708063B
:1024300000F18580490632D51D631670A4E7880631
:102440002DD51179508804EBC1042189DD698142C1
:1024500055D801297CD008200221107059601EE057
:1024600008066CD448061AD561881D638907E4D52F
:1024700082F800C088E760882188C50643BF090A42
:1024800001F0060141F0F00101F0FE01440748BFF0
:1024900041F00101042401201470586059620120A8
:1024A000BDE8F0037047080649D44906F7D56188AE
:1024B0001D63C8065CD48907BFD51179072004EBDA
:1024C000C104218910700129E9D108225A60E6E788
:1024D0002D4A2BE72C4A51E7FB200921507011703F
:1024E00040B20021012859637FF463AF5170084660
:1024F0005FE7000A00F0060040F0F00070E7646853
:10250000461C5680255450888142A2D904240129B2
:102510005C6002D0013988421DD011780929BED1F2
:102520005078DDE78F0504D5FD205070092111702A
:10253000D6E74E054ABFFE2050785070F6E780255A
:10254000FF24082002211D63547010705960A6E713
:10255000082159607FE7082159601178DEE7D8F833
:102560000410441C5480085C06215862117096E7E0
:10257000217802201070596291E700BF00A000404E
:1025800060010020CFFF01005401002029B1012982
:1025900002D11430026070477047103002607047FB
:1025A00011B902234360704701234360704700BFA5
:1025B0000A7870B422B98368DC0744BF0223436001
:1025C0004B788E78002BCC7814BF4FF4A0554FF485
:1025D000806514BF4FF480530023002E18BF2B4694
:1025E0000CB143F400630C790CB143F400734C79E3
:1025F0000CB143F480738C790CB143F04003CC7977
:102600000CB143F080034D7A0E7A8C7A2D0145EAA5
:10261000860121430B43036022B18368DB075CBF63
:102620000123436070BC70470B4B59691A6901F074
:102630000F01C2F3811242EA810282701A6902F02C
:102640003F0242709A69DB6902F0F002C3F30313A0
:1026500013430370704700BFD0FF0FE00B78F0B456
:102660000BB902224260CA788C780E7A12044D7837
:1026700042EA04628C79CF7932434E7A002D42EAE5
:1026800084228D7A0CBF0024402442EA0722002EC7
:10269000CE7A0F7942EA04020CBF00248024002D78
:1026A00042EA04024D790CBF00242024002E42EAA5
:1026B00004020CBF002610260C7B002F0CBF00214B
:1026C0004FF400513243002D42EA01020CBF0021B9
:1026D0004FF08051002C42EA01020CBF002108217A
:1026E0000A430021416202600BB101234360F0BC48
:1026F000704700BF064880470649074A074B9A4281
:10270000BEBF51F8040B42F8040BF8E7FDF712FDC9
:10271000E92800009C37000000000020780000201D
:10272000FEE700BF2A4AD36A03F47053B3F5805F13
:102730002AD0B3F5005F24D0B3F5006F11D0D36871
:1027400003F4E063B3F5007F3FD020D9B3F5806F89
:1027500039D0B3F5A06F34D0B3F5407F25D0002138
:1027600001E01C4B19681A4B1B4A18685B68C0F3E0
:1027700082300130B1FBF0F003F00F03D84010605D
:102780007047164B1968EEE74FF40041EBE773B161
:10279000B3F5807FE3D1124B124AD96C124BB1F1E1
:1027A000985F34BF11461946DDE71049DBE70C4B53
:1027B0000F4AD96C0F4BB1F1985F34BF11461946DF
:1027C000D1E70D49CFE70D49CDE70D49CBE700BF74
:1027D00000800C4008000020100C002004000020A5
:1027E000B081E00FC0CF6A0040B56400809FD50083
:1027F00040420F00804F1200003FAB01406F40018C
:10280000C0D8A70000487047006CDC02274AD36A92
:1028100003F47053B3F5805F24D0B3F5005F1ED08E
:10282000B3F5006F11D0D36803F4E063B3F5007F14
:1028300039D01AD9B3F5806F33D0B3F5A06F2ED04D
:10284000B3F5407F1FD0002001E0194B1868174BEB
:102850001B68C3F382330133B0FBF3F07047154BB1
:102860001868F4E74FF40040F1E773B1B3F5807FE7
:10287000E9D1114B114AD86C114BB0F1985F34BFBC
:1028800010461846E3E70F48E1E70B4B0E4AD86CB9
:102890000E4BB0F1985F34BF10461846D7E70C488E
:1028A000D5E70C48D3E70C48D1E700BF00800C40C7
:1028B0000800002004000020B081E00FC0CF6A00B3
:1028C00040B56400809FD50040420F00804F120049
:1028D000003FAB01406F4001C0D8A700014B186812
:1028E000704700BF08000020704700BF4FF4004051
:1028F000704700BF4FF47A70704700BF014B1868F3
:10290000704700BF0400002081F0004102E000BFDA
:1029100083F0004330B54FEA41044FEA430594EA9F
:10292000050F08BF90EA020F1FBF54EA000C55EADA
:10293000020C7FEA645C7FEA655C00F0E2804FEAAB
:102940005454D4EB5555B8BF6D420CDD2C4480EA8D
:10295000020281EA030382EA000083EA010180EABD
:10296000020281EA0303362D88BF30BD11F0004F0B
:102970004FEA01314FF4801C4CEA113102D0404241
:1029800061EB410113F0004F4FEA03334CEA13337C
:1029900002D0524263EB430394EA050F00F0A78094
:1029A000A4F10104D5F1200E0DDB02FA0EFC22FA8F
:1029B00005F2801841F1000103FA0EF2801843FA83
:1029C00005F359410EE0A5F120050EF1200E012A74
:1029D00003FA0EFC28BF4CF0020C43FA05F3C018B2
:1029E00051EBE37101F0004507D54FF0000EDCF12B
:1029F000000C7EEB00006EEB0101B1F5801F1BD3D4
:102A0000B1F5001F0CD349085FEA30004FEA3C0CD7
:102A100004F101044FEA445212F5800F80F09A80CD
:102A2000BCF1004F08BF5FEA500C50F1000041EBD1
:102A3000045141EA050130BD5FEA4C0C404141EBD5
:102A4000010111F4801FA4F10104E9D191F0000FFC
:102A500004BF01460020B1FA81F308BF2033A3F17F
:102A60000B03B3F120020CDA0C3208DD02F1140C76
:102A7000C2F10C0201FA0CF021FA02F10CE002F1B1
:102A80001402D8BFC2F1200C01FA02F120FA0CFCAA
:102A9000DCBF41EA0C019040E41AA2BF01EB0451F3
:102AA000294330BD6FEA04041F3C1CDA0C340EDCF1
:102AB00004F11404C4F1200220FA04F001FA02F334
:102AC00040EA030021FA04F345EA030130BDC4F1F2
:102AD0000C04C4F1200220FA02F001FA04F340EAE7
:102AE0000300294630BD21FA04F0294630BD94F098
:102AF000000F83F4801306BF81F480110134013D7F
:102B00004EE77FEA645C18BF7FEA655C29D094EAEF
:102B1000050F08BF90EA020F05D054EA000C04BF6D
:102B20001946104630BD91EA030F1EBF0021002058
:102B300030BD5FEA545C05D14000494128BF41F0F7
:102B4000004130BD14F580043CBF01F5801130BD5B
:102B500001F0004545F0FE4141F470014FF00000E6
:102B600030BD7FEA645C1ABF194610467FEA655C97
:102B70001CBF0B46024650EA013406BF52EA033539
:102B800091EA030F41F4002130BD00BF90F0000F27
:102B900004BF0021704730B54FF4806404F1320463
:102BA0004FF000054FF0000150E700BF90F0000F1C
:102BB00004BF0021704730B54FF4806404F1320443
:102BC00010F0004548BF40424FF000013EE700BF13
:102BD00042004FEAE2014FEA31014FEA02701FBFA3
:102BE00012F07F4393F07F4F81F06051704792F075
:102BF000000F14BF93F07F4F704730B54FF46074EF
:102C000001F0004521F0004120E700BF50EA010239
:102C100008BF704730B54FF000050AE050EA0102E6
:102C200008BF704730B511F0004502D5404261EB56
:102C300041014FF4806404F132045FEA915C3FF497
:102C4000DCAE4FF003025FEADC0C18BF03325FEA30
:102C5000DC0C18BF033202EBDC02C2F1200300FAE5
:102C600003FC20FA02F001FA03FE40EA0E0021FA0A
:102C700002F11444C1E600BF70B54FF0FF0C4CF4F4
:102C8000E06C1CEA11541DBF1CEA135594EA0C0FAA
:102C900095EA0C0F00F0DEF82C4481EA030621EAE5
:102CA0004C5123EA4C5350EA013518BF52EA033520
:102CB00041F4801143F4801338D0A0FB02CE4FF0D2
:102CC0000005E1FB02E506F00042E0FB03E54FF002
:102CD0000006E1FB03569CF0000F18BF4EF0010EFA
:102CE000A4F1FF04B6F5007F64F5407404D25FEAF6
:102CF0004E0E6D4146EB060642EAC62141EA5551A9
:102D00004FEAC52040EA5E504FEACE2EB4F1FD0CEA
:102D100088BFBCF5E06F1ED8BEF1004F08BF5FEA68
:102D2000500E50F1000041EB045170BD06F000461A
:102D300046EA010140EA020081EA0301B4EB5C04C7
:102D4000C2BFD4EB0C0541EA045170BD41F48011BF
:102D50004FF0000E013C00F3AB8014F1360FDEBFE4
:102D6000002001F0004170BDC4F10004203C35DAC0
:102D70000C341BDC04F11404C4F1200500FA05F343
:102D800020FA04F001FA05F240EA020001F00042E4
:102D900021F0004110EBD37021FA04F642EB06015A
:102DA0005EEA430E08BF20EAD37070BDC4F10C0484
:102DB000C4F1200500FA04F320FA05F001FA04F248
:102DC00040EA020001F0004110EBD37041F1000134
:102DD0005EEA430E08BF20EAD37070BDC4F120053F
:102DE00000FA05F24EEA020E20FA04F301FA05F2A7
:102DF00043EA020321FA04F001F0004121FA04F24F
:102E000020EA020000EBD3705EEA430E08BF20EA1E
:102E1000D37070BD94F0000F0FD101F00046400058
:102E200041EB010111F4801F08BF013CF7D041EADA
:102E3000060195F0000F18BF704703F000465200DE
:102E400043EB030313F4801F08BF013DF7D043EAAF
:102E50000603704794EA0C0F0CEA135518BF95EA65
:102E60000C0F0CD050EA410618BF52EA4306D1D1EC
:102E700081EA030101F000414FF0000070BD50EA0B
:102E8000410606BF1046194652EA430619D094EA95
:102E90000C0F02D150EA013613D195EA0C0F05D17F
:102EA00052EA03361CBF104619460AD181EA0301D3
:102EB00001F0004141F0FE4141F470014FF000008B
:102EC00070BD41F0FE4141F4780170BD70B54FF026
:102ED000FF0C4CF4E06C1CEA11541DBF1CEA1355A6
:102EE00094EA0C0F95EA0C0F00F0A7F8A4EB050488
:102EF00081EA030E52EA03354FEA013100F088807F
:102F00004FEA03334FF0805545EA131343EA126347
:102F10004FEA022245EA111545EA10654FEA0026FC
:102F20000EF000419D4208BF964244F1FD0404F5B5
:102F3000407402D25B084FEA3202B61A65EB030511
:102F40005B084FEA32024FF480104FF4002CB6EBCE
:102F5000020E75EB030E22BFB61A754640EA0C004E
:102F60005B084FEA3202B6EB020E75EB030E22BF8E
:102F7000B61A754640EA5C005B084FEA3202B6EBCF
:102F8000020E75EB030E22BFB61A754640EA9C008E
:102F90005B084FEA3202B6EB020E75EB030E22BF5E
:102FA000B61A754640EADC0055EA060E18D04FEA1C
:102FB000051545EA16754FEA06164FEAC30343EABC
:102FC00052734FEAC2025FEA1C1CC0D111F4801F89
:102FD0000BD141EA00014FF000004FF0004CB6E782
:102FE00011F4801F04BF01430020B4F1FD0C88BF21
:102FF000BCF5E06F3FF6AFAEB5EB030C04BFB6EB2C
:10300000020C5FEA500C50F1000041EB045170BD1E
:103010000EF0004E4EEA113114EB5C04C2BFD4EB4B
:103020000C0541EA045170BD41F480114FF0000ECF
:10303000013C90E645EA060E8DE60CEA135594EA4B
:103040000C0F08BF95EA0C0F3FF43BAF94EA0C0F4E
:103050000AD150EA01347FF434AF95EA0C0F7FF4C3
:1030600025AF104619462CE795EA0C0F06D152EA17
:1030700003353FF4FDAE1046194622E750EA4106FB
:1030800018BF52EA43067FF4C5AE50EA41047FF40C
:103090000DAF52EA43057FF4EBAE12E74FEA41026F
:1030A00012F5001215D211D56FF47873B3EB62529A
:1030B00012D94FEAC12343F0004343EA505311F0C1
:1030C000004F23FA02F018BF404270474FF0000053
:1030D000704750EA013005D111F0004008BF6FF091
:1030E000004070474FF00000704700BF80F0004084
:1030F00002E000BF81F0004142001FBF5FEA4103D0
:1031000092EA030F7FEA226C7FEA236C6AD04FEACF
:103110001262D2EB1363C1BFD21841404840414014
:10312000B8BF5B42192B88BF704710F0004F40F4C6
:10313000000020F07F4018BF404211F0004F41F4E2
:10314000000121F07F4118BF494292EA030F3FD0AE
:10315000A2F1010241FA03FC10EB0C00C3F12003C1
:1031600001FA03F100F0004302D5494260EB400050
:10317000B0F5000F13D3B0F1807F06D340084FEABB
:10318000310102F10102FE2A51D2B1F1004F40EBB0
:10319000C25008BF20F0010040EA03007047490018
:1031A00040EB000010F4000FA2F10102EDD1B0FAE3
:1031B00080FCACF1080CB2EB0C0200FA0CF0AABFD8
:1031C00000EBC25052421843BCBFD0401843704776
:1031D00092F0000F81F4000106BF80F4000001327C
:1031E000013BB5E74FEA41037FEA226C18BF7FEA53
:1031F000236C21D092EA030F04D092F0000F08BF95
:103200000846704790EA010F1CBF0020704712F07B
:103210007F4F04D1400028BF40F00040704712F1BA
:1032200000723CBF00F50000704700F0004343F01F
:10323000FE4040F4000070477FEA226216BF084655
:103240007FEA23630146420206BF5FEA412390EA18
:10325000010F40F4800070474FF0000304E000BF0E
:1032600010F0004348BF40425FEA000C08BF7047BF
:1032700043F0964301464FF000001CE050EA010283
:1032800008BF70474FF000030AE000BF50EA010298
:1032900008BF704711F0004302D5404261EB410185
:1032A0005FEA010C02BF84460146002043F0B643AA
:1032B00008BFA3F18053A3F50003BCFA8CF2083ACF
:1032C000A3EBC25310DB01FA02FC634400FA02FCD8
:1032D000C2F12002BCF1004F20FA02F243EB0200DF
:1032E00008BF20F00100704702F1200201FA02FC41
:1032F000C2F1200250EA4C0021FA02F243EB020034
:1033000008BF20EADC7070474FF0FF0C1CEAD05277
:103310001EBF1CEAD15392EA0C0F93EA0C0F6FD038
:103320001A4480EA010C400218BF5FEA41211ED016
:103330004FF0006343EA501043EA5111A0FB013102
:103340000CF00040B1F5000F3EBF490041EAD371D7
:103350005B0040EA010062F17F02FD2A1DD8B3F153
:10336000004F40EBC25008BF20F00100704790F0C2
:10337000000F0CF0004C08BF49024CEA502040EA14
:1033800051207F3AC2BFD2F1FF0340EAC2507047DA
:1033900040F400004FF00003013A5DDC12F1190F18
:1033A000DCBF00F000407047C2F10002410021FA8A
:1033B00002F1C2F1200200FA02FC5FEA310040F1A2
:1033C000000053EA4C0308BF20EADC70704792F01B
:1033D000000F00F0004C02BF400010F4000F013A53
:1033E000F9D040EA0C0093F0000F01F0004C02BF4E
:1033F000490011F4000F013BF9D041EA0C018FE7BD
:103400000CEAD15392EA0C0F18BF93EA0C0F0AD0C2
:1034100030F0004C18BF31F0004CD8D180EA0100E8
:1034200000F00040704790F0000F17BF90F0004F81
:10343000084691F0000F91F0004F14D092EA0C0F63
:1034400001D142020FD193EA0C0F03D14B0218BFF6
:10345000084608D180EA010000F0004040F0FE403C
:1034600040F40000704740F0FE4040F440007047D8
:103470004FF0FF0C1CEAD0521EBF1CEAD15392EA57
:103480000C0F93EA0C0F69D0A2EB030280EA010C47
:1034900049024FEA402037D04FF0805343EA1111E0
:1034A00043EA10130CF000408B4238BF5B0042F13E
:1034B0007D024FF4000C8B4224BF5B1A40EA0C00E3
:1034C000B3EB510F24BFA3EB510340EA5C00B3EB15
:1034D000910F24BFA3EB910340EA9C00B3EBD10F03
:1034E00024BFA3EBD10340EADC001B0118BF5FEA55
:1034F0001C1CE0D1FD2A3FF650AF8B4240EBC2507E
:1035000008BF20F0010070470CF0004C4CEA50203E
:103510007F32C2BFD2F1FF0340EAC250704740F48D
:1035200000004FF00003013A37E792F0000F00F07F
:10353000004C02BF400010F4000F013AF9D040EAFD
:103540000C0093F0000F01F0004C02BF490011F491
:10355000000F013BF9D041EA0C0195E70CEAD15389
:1035600092EA0C0F08D142027FF47DAF93EA0C0F70
:103570007FF470AF084676E793EA0C0F04D14B0254
:103580003FF44CAF08466EE730F0004C18BF31F006
:10359000004CCAD130F000427FF45CAF31F0004300
:1035A0007FF43CAF5FE700BF4FF0FF3C06E000BF99
:1035B0004FF0010C02E000BF4FF0010C4DF804CDBC
:1035C0004FEA40024FEA41037FEA226C18BF7FEACC
:1035D000236C11D001B052EA530C18BF90EA010FCE
:1035E00058BFB2EB030088BFC81738BF6FEAE1705D
:1035F00018BF40F0010070477FEA226C02D15FEAF9
:10360000402C05D17FEA236CE4D15FEA412CE1D064
:103610005DF8040B704700BF844608466146FFE72B
:103620000FB5FFF7C9FF002848BF10F1000F0FBD0D
:103630004DF808EDFFF7F4FF0CBF012000205DF806
:1036400008FB00BF4DF808EDFFF7EAFF34BF01208B
:1036500000205DF808FB00BF4DF808EDFFF7E0FF24
:1036600094BF012000205DF808FB00BF4DF808ED75
:10367000FFF7D2FF94BF012000205DF808FB00BFD8
:103680004DF808EDFFF7C8FF34BF012000205DF8BA
:1036900008FB00BF42000ED2B2F1FE4F0BD34FF039
:1036A0009E03B3EB126209D44FEA002343F00043B8
:1036B00023FA02F070474FF00000704712F1610FDB
:1036C00001D1420202D14FF0FF3070474FF00000AD
:1036D000704700BF08B5074B044613B10021AFF394
:1036E0000080054B1868836A03B19847204600F0B4
:1036F00033F800BF000000008C37000070B50E4B9F
:103700000E4D0024ED1AAD101E46AC4204D056F802
:10371000242090470134F8E700F020F8084D094BC9
:103720000024ED1AAD101E46AC4204D056F82420F9
:1037300090470134F8E770BD6C0000206C00002059
:10374000700000206C00002002440346934202D027
:1037500003F8011BFAE77047FEE700BFF8B500BFAA
:10376000F8BC08BC9E467047F8B500BFF8BC08BC62
:103770009E467047010100000000000060670100E4
:103780000000000008091108430000000C000020A0
:043790000000000035
:08379400A0C9FF7F0100000045
:10379C000A02010000800000006CDC020000000046
:1037AC00000000000000000000000000000000000D
:1037BC00000000000000000000000000883700003E
:1037CC0000000000000000000000000000000000ED
:1037DC0000000000000000000000000000000000DD
:1037EC0000000000000000000000000000000000CD
:1037FC0000000000000000000000000005010000B7
:08380C00E100000000000000D3
:04000003000026F5DE
:00000001FF
