:10000000008000202D3F0000593F0000593F0000B4
:10001000593F0000593F0000593F0000593F000080
:10002000593F0000593F0000593F0000593F000070
:10003000593F0000593F0000593F0000593F000060
:10004000ED290000593F00005D0C0000593F000001
:10005000593F0000593F00009D0A0000593F000031
:10006000593F0000593F0000593F00007117000040
:10007000593F0000593F0000593F0000593F000020
:10008000593F0000593F0000593F0000593F000010
:10009000593F0000593F0000593F0000593F000000
:1000A0003D110000593F000021060000593F0000AB
:1000B000593F0000593F0000593F0000593F0000E0
:1000C000593F0000593F0000593F0000593F0000D0
:1000D000593F0000593F0000593F0000593F0000C0
:1000E00010B5054C237833B9044B13B10448AFF372
:1000F00000800123237010BD0001002000000000DB
:10010000BC4F000008B5064B1BB106480649AFF3CB
:1001100000800648036813B1054B03B1984708BD3A
:1001200000000000BC4F000004010020740000200B
:1001300000000000154B002B08BF134B9D46A3F594
:10014000803A00218B460F461348144A121A04F0D5
:1001500009FF0F4B002B00D098470E4B002B00D00F
:1001600098470020002104000D000D48002802D00F
:100170000C48AFF3008004F0CFFE2000290001F00E
:100180000BF804F0B5FE00BF00000800008000205E
:10019000000000000000000000010020140C0020FE
:1001A000000000000000000080B483B000AF0346F0
:1001B0003960FB71FB79002B0DD0FB79012B0AD044
:1001C000FB79022B07D0FB79032B04D0FB79042B9E
:1001D00001D0FB79052B0948FA793B68012101FA26
:1001E00003F319461346DB0013449B00034410330A
:1001F00059600C37BD465DF8047B704700600040D5
:1002000080B483B000AF03463960FB71FB79002BEB
:100210000DD0FB79012B0AD0FB79022B07D0FB799B
:10022000032B04D0FB79042B01D0FB79052B094863
:10023000FA793B68012101FA03F319461346DB0002
:1002400013449B000344103319600C37BD465DF81E
:10025000047B70470060004080B483B000AF034669
:100260003960FB71FB79002B0DD0FB79012B0AD093
:10027000FB79022B07D0FB79032B04D0FB79042BED
:1002800001D0FB79052B0948FA793B68012101FA75
:1002900003F319461346DB0013449B000344183351
:1002A00019600C37BD465DF8047B70470060004064
:1002B00080B582B000AF0346FB712648012101F0F2
:1002C000EDFE022006210022002302F0AFFF0420F1
:1002D00002210422002302F0A9FF042003210422AA
:1002E000002302F0A3FF032006210422012302F0D1
:1002F0009DFF022005210B22012302F097FF02201F
:1003000004210B22012302F091FF0320012101228D
:10031000002302F08BFF032000210422002302F0BF
:1003200085FF0420012102F0E3FE0320012102F0F9
:10033000DFFE032004210422012302F077FF0320C3
:1003400005210422012302F071FF0023184608371B
:10035000BD4680BD00D2040080B582B000AF0B4620
:100360003A600246FA71BB71FB79002B05D1BB796B
:1003700018463968FFF744FF13E0FB79012B05D1DC
:10038000BB7918463968FFF70FFF0AE0FB79022BAB
:1003900005D1BB7918463968FFF75EFF01E00123FC
:1003A00000E0002318460837BD4680BD80B483B006
:1003B00000AF0346FB71084B97F907205209F97902
:1003C00001F01F01012000FA01F143F822100C375F
:1003D000BD465DF8047B704700E100E080B400AFEB
:1003E00072B6084B1B68B3F1FF3F04D0054B1B6886
:1003F0005A1C044B1A60034B1B681846BD465DF837
:10040000047B70476C01002080B483B000AF0C4BBC
:100410001B68002B0DD00A4B1B685A1E084B1A6034
:10042000074B1B687B607B68002B00D162B67B6842
:1004300000E0002318460C37BD465DF8047B70478A
:100440006C01002080B483B000AF786039607B68B5
:100450003A689A620C37BD465DF8047B704700BF6E
:1004600080B483B000AF786039607B68DA6A3B683B
:100470001A437B68DA620C37BD465DF8047B70472F
:1004800080B483B000AF78600B46FB707A680F4B86
:100490009A420BD07A680E4B9A4207D07A680D4B7D
:1004A0009A4203D07A680C4B9A4200D100BFFB7885
:1004B000002B03D07B6801225A6002E07B68022295
:1004C0005A600C37BD465DF8047B70470000014060
:1004D0000004014000080140000C014080B483B0DA
:1004E00000AF78600B46FB70FA787B685A600C3777
:1004F000BD465DF8047B704780B588B000AF034609
:10050000FB7101233B7300237B730023BB73002328
:10051000FB7300233B7400237B740023BB74002314
:10052000FB7400233B7500237B750023BB750223FE
:10053000FB61FB6903F00F031B02FB61344B344A80
:10054000916EFA690A439A66324B9B6A31481946A2
:10055000FFF778FF2F480121FFF782FFFB79032B7C
:1005600025D12D4B1B68184603F01EFF02460B4693
:100570001046194624A3D3E9002303F08BFF02465B
:100580000B461046194604F097F90346BB61BB6958
:10059000204800211A4603F04DFABB69C3F57F439A
:1005A000FF331C4800211A4603F044FA14E0FB799B
:1005B000002B05D0FB79012B02D0FB79022B09D14E
:1005C00043F61F03BB61BB69124800211A4603F0C2
:1005D00031FA01E0012310E007F10C030D48194640
:1005E00003F06AFA1A20FFF7E1FE0A48012103F03E
:1005F0004DFA032000F060FE002318462037BD4668
:1006000080BD00BFAFF3008096438B6CE7FB1840C2
:1006100000800C400020084070010020AFF30080F3
:1006200080B584B002AF00237B60FFF7D7FE0320C4
:1006300000F042FE52480121FFF704FF514B9B6836
:1006400003F002035A08504B1A60504B1B68002BF2
:100650004BD14E4B01221A60494B0022DA604C4BC1
:100660001B68184603F0A0FE02460B4610461946CA
:100670003FA3D3E9002303F00DFF02460B461046CB
:10068000194604F019F903467B60414B1B68B3F52A
:100690007A7F05D27B689B087B607B6801337B6037
:1006A000374A7B68C3F57F43FF331361394B1B78AF
:1006B000002B05D100F0D0FF364B01221A703BE031
:1006C000344B1B78012B03D1324B02221A7033E0DA
:1006D000304B1B78022B2FD1032000F0EDFD00F0F2
:1006E000FBFF2C4B00221A7026E0284B1B68012BC5
:1006F00022D1264B00221A60214B0022DA60244BC3
:100700001B68184603F050FE02460B461046194679
:1007100019A3D3E9002303F0BDFE02460B461046A1
:10072000194604F0C9F803467B60154A7B689B08AC
:10073000C3F57F43FF331361144B1B68012B11D1A9
:10074000012000F0B9FD144B009340F2F313019324
:10075000002001210022114B02F0B4F910480121C0
:10076000FFF7BCFEFFF750FE0837BD4680BD00BF57
:10077000FCA9F1D24D62703F96438B6CE7FB1840A9
:100780000020084000100040740100201C010020DF
:10079000700100202001002024200040780100206A
:1007A00000200040AFF3008080B588B000AFF86053
:1007B0000B467A60FB720023FB614FF000037B6104
:1007C000214B214A526842F002025A60012000F097
:1007D00089FD0023BB610BE01C4BBA6933F8123072
:1007E0009BB21BB2FA691344FB61BB690133BB6165
:1007F000BB69B3F5FA7FEFDBFB69154A82FB031295
:100800005211DB17D31AFB61F86900F07DFA7861A9
:100810007869104904F024FB0346002B06D178695F
:100820000D4904F03BFB0346002B05D000200421BA
:100830000322FFF791FD04E0012004210322FFF7CA
:100840008BFD2037BD4680BD002000407801002090
:10085000D34D62100000704100000C4290B589B089
:1008600000AF00237B610023FB6100233B61002379
:10087000BB6100200121012201F072FF5E480221CC
:1008800001F012FE5D48012101F008FC5C480121E5
:1008900001F004FC01233B7000237B700023BB703C
:1008A0000023FB7000233B7100237B710023BB718D
:1008B0000023FB7100233B7200237B720023BB7279
:1008C00001233B7100233B703B464E48194603F021
:1008D000F3F84C4B4FF40042DA604A48012103F030
:1008E000D5F849480121FFF7CBFD48480121FFF722
:1008F000C7FD444BDB68FB6102E0424BDB68FB61F8
:10090000FB69002BF9D1414B5B6A1A043E4B5B6AD1
:1009100013447B613C480021FFF7B2FD3B480021B6
:10092000FFF7AEFD384B00225A62384B00225A6264
:1009300000200021012201F013FF052001210122E6
:1009400001F00EFF2C48092101F0AEFD2D4B4FF4B4
:100950007A72DA602B48012103F098F82A480121C5
:10096000FFF78EFD29480121FFF78AFD254BDB6843
:10097000BB6102E0234BDB68BB61BB69002BF9D193
:10098000224B5B6A1A04204B5B6A13443B61786913
:1009900004F070F80446386904F06CF80346204609
:1009A000194604F073F903461846194904F0BAF8D9
:1009B0000346184604F07CFA0346FB60154BFA68C0
:1009C0001A6011480021FFF75BFD10480021FFF776
:1009D00057FD05200021012201F0C2FE0748002139
:1009E00001F05CFB0648002101F058FB002318468B
:1009F0002437BD4690BD00BF02001800004302002E
:100A00006026120000200840000001400004014060
:100A100000007A447001002080B483B000AF786099
:100A200039607B683A689A610C37BD465DF8047B93
:100A3000704700BF80B400AF72B6084B1B68B3F1BB
:100A4000FF3F04D0054B1B685A1C044B1A60034B34
:100A50001B681846BD465DF8047B70476C0100209A
:100A600080B483B000AF0C4B1B68002B0DD00A4B39
:100A70001B685A1E084B1A60074B1B687B607B681B
:100A8000002B00D162B67B6800E0002318460C37CB
:100A9000BD465DF8047B70476C01002080B500AF57
:100AA000FFF7C8FF03480121FFF7B6FFFFF7D8FFA4
:100AB00080BD00BF0010004080B586B000AF254863
:100AC000012101F0EBFA2448012101F0E7FA0023AB
:100AD0003B7400237B740023BB741F23FB7400232F
:100AE0003B7500237B7500233B7100237B71002342
:100AF000BB710023FB7100233B7200237B72002338
:100B0000BB720023FB7200233B731448002100F0EA
:100B1000FBFF03463B75002001F028F80346FB74F9
:100B200007F110030E48194600F05EFF08233B72E0
:100B30000023BB710023FB7100237B7101233B73F6
:100B40003B1D0748194600F093FF0023184618374D
:100B5000BD4680BD408104000002050020D6130080
:100B60000020004080B483B000AF786039607B68BB
:100B70003A689A610C37BD465DF8047B704700BF48
:100B800080B400AF72B6084B1B68B3F1FF3F04D0CE
:100B9000054B1B685A1C044B1A60034B1B68184614
:100BA000BD465DF8047B70476C01002080B483B0C3
:100BB00000AF0C4B1B68002B0DD00A4B1B685A1E54
:100BC000084B1A60074B1B687B607B68002B00D1C9
:100BD00062B67B6800E0002318460C37BD465DF81E
:100BE000047B70476C01002080B582B000AF0346E3
:100BF000FB71FB79002B05D0FB79012B02D0FB792F
:100C0000022B09D100200121012201F0A9FD104889
:100C1000022101F049FC0EE0FB79032B09D10520EC
:100C20000121012201F09CFD0948092101F03CFC51
:100C300001E0012308E00748012101F02FFA0648EE
:100C4000012101F02BFA002318460837BD4680BD6C
:100C500002001800004302006026120080B500AFB9
:100C6000FFF78EFF03480121FFF77CFFFFF79EFF90
:100C700080BD00BF0000014080B588B000AF1D48B6
:100C8000012101F00BFA1C48012101F007FA1B4871
:100C9000012101F003FA07F1100300221A60043366
:100CA00000221A60043300221A60043300221A70F2
:100CB00001333B4600221A60043300221A600433D9
:100CC00000221A60043300221A7001330223FB70E1
:100CD0000123BB7207F110030948194603F0A0F87D
:100CE0003B460848194603F09BF800231846203776
:100CF000BD4680BD40810400005204000062040033
:100D0000000001400004014080B586B000AF78606B
:100D1000164B1B6803F47F031B0C184603F0AAFE56
:100D200003467B61124B1B681B0D184603F0A2FEA5
:100D300003463B610F4BFB60786803F09FFE034660
:100D40003869194603F0E4FD03461846F96803F0D4
:100D50009DFF03467869194603F0DAFD0346BB6040
:100D6000BB6818461837BD4680BD00BFB081E00F94
:100D7000BC81E00FD7A3C8C080B588B000AF1D48C4
:100D8000012101F08BF900233B761B4BFB6107F13E
:100D90001803184601F036FF00233B7101237B71D5
:100DA0004FF40023BB60154BFB60144B144A1A60D0
:100DB000124B01221A72114B00225A603B1D002077
:100DC000194601F09FFE01233B7403237B7401232A
:100DD000BB740023FB7400233B7507F11003002054
:100DE00001211A4601F0D6FE002318462037BD46E1
:100DF00080BD00BF00030200000A00204809002057
:100E0000A907000080B483B000AF786039607B68C8
:100E10003A681A630C37BD465DF8047B704700BF23
:100E200090B585B000AF1B48012101F037F91A4891
:100E3000012101F033F9194B3C460FCB84E80F0038
:100E400017481849FFF7DEFF154B03229A633B460C
:100E50001348194602F01AFB114B9B68002B02D075
:100E60000F4B20225A60104B00221A700F4B0022A9
:100E70001A700F4B00221A70094B72225A61084BEC
:100E8000074A126842F017021A6000231846143706
:100E9000BD4690BD4081040000C20400904F000098
:100EA00000A4004024000100010C0020020C0020DE
:100EB000000C002080B586B000AF7223BB800123F8
:100EC000FB800C4BBB600C4B1B78BB810B4B3B611D
:100ED0000B4B1B78BB823B1D0A48194602F038FDBC
:100EE00000BF084802F00EFB0346012BF9D018376B
:100EF000BD4680BD2401002000000020040C00201D
:100F00000200002000A4004080B586B000AF72232C
:100F10003B8004237B800D4B7B600D4B1B783B811A
:100F20000C4BFB600C4B1B783B823B460B48194635
:100F300002F00EFD0346FB7500BF084802F0E2FA1E
:100F40000346012BF9D01837BD4680BD280100208B
:100F500001000020040C00200200002000A400403A
:100F600080B584B000AF786013460A46FA70BB7053
:100F7000FB78002B09D17B681A78124B1A70124B40
:100F8000BA781A70FFF7C0FF19E0FB78012B16D171
:100F90000023FB600AE0FB687A6813441A780B4967
:100FA000FB680B441A70FB680133FB60BA78FB687E
:100FB0009A42F0DC064BBA781A70FFF77BFF1037C5
:100FC000BD4680BD28010020010000202401002032
:100FD0000000002080B483B000AF0346FB71084BD3
:100FE00097F907205209F97901F01F01012000FA51
:100FF00001F143F822100C37BD465DF8047B7047C1
:1010000000E100E080B400AF72B6084B1B68B3F19A
:10101000FF3F04D0054B1B685A1C044B1A60034B5E
:101020001B681846BD465DF8047B70476C010020C4
:1010300080B483B000AF0C4B1B68002B0DD00A4B63
:101040001B685A1E084B1A60074B1B687B607B6845
:10105000002B00D162B67B6800E0002318460C37F5
:10106000BD465DF8047B70476C01002080B483B0FE
:1010700000AF786039607B683A685A630C37BD46C8
:101080005DF8047B704700BF80B483B000AF786028
:1010900039607B689A6B3B681A437B689A630C37AC
:1010A000BD465DF8047B704790B585B000AF002069
:1010B0000121012201F054FB1448022101F0F4F94E
:1010C0001348012100F0EAFF124802F01FFE124B04
:1010D0003C460FCB84E80F003B460E48194602F011
:1010E000D3FD0C4B03225A650A4B0A4A126842F0A0
:1010F00080021A6007480121FFF7C6FF1820FFF79A
:1011000069FF002318461437BD4690BD03001A003E
:101110007007140000400840A04F000080B582B066
:1011200000AF0346FB71FB790348194602F026FE27
:101130000837BD4680BD00BF0040084080B500AF05
:10114000FFF760FF03480121FFF790FFFFF770FFF3
:1011500080BD00BF0040084080B582B000AF0C4B9E
:101160001B687B603B46184602F020FE7B681B0E26
:101170000F2B0AD93B78032B07D1064B054A12687F
:1011800022F0500242F010021A600837BD4680BDBE
:10119000FC81E00FC0800C4080B582B000AFFFF74B
:1011A000DBFF032000F088F8FFF766FD7860FFF7AB
:1011B00055FB78600320FFF717FD78600320FFF7E9
:1011C00077F87860FFF72CFE7860FFF775FC7860A1
:1011D000FFF7D2FD78600320FFF78EF97860FFF704
:1011E00063FF78607720FFF799FF00F045F8FCE790
:1011F00080B400AF054B054A126922F004021A615F
:1012000030BFBD465DF8047B704700BF00ED00E0D5
:1012100080B400AF72B6084B1B68B3F1FF3F04D037
:10122000054B1B685A1C044B1A60034B1B6818467D
:10123000BD465DF8047B70476C01002080B483B02C
:1012400000AF0C4B1B68002B0DD00A4B1B685A1EBD
:10125000084B1A60074B1B687B607B68002B00D132
:1012600062B67B6800E0002318460C37BD465DF887
:10127000047B70476C01002080B500AF0D4B1B68EC
:10128000002B00DD15E00B4B5B68002B02DDFFF748
:10129000AFFF0EE0074B9B68002B03DD012001F040
:1012A000EBFD06E0034BDB68002B02DD012001F0C3
:1012B00031FE80BD2C01002080B582B000AF034616
:1012C000FB71FFF7A5FFFB79054A52F82320511C5B
:1012D000034A42F82310FFF7B1FF0837BD4680BD2F
:1012E0002C01002080B582B000AF0346FB71FFF7F0
:1012F0008FFFFA79084B53F82230002B07DDFB797A
:10130000054A52F82320511E034A42F82310FFF7E2
:1013100095FF0837BD4680BD2C01002080B483B006
:1013200000AF0346FB71084B97F907205209F97982
:1013300001F01F01012000FA01F143F822100C37DF
:10134000BD465DF8047B704700E100E080B483B0E7
:1013500000AF0346FB71094B97F907205209F97951
:1013600001F01F01012000FA01F1203243F82210A0
:101370000C37BD465DF8047B704700BF00E100E01C
:1013800080B483B000AF0346FB71094B97F9072087
:101390005209F97901F01F01012000FA01F16032D0
:1013A00043F822100C37BD465DF8047B704700BF40
:1013B00000E100E080B483B000AF7860044B7A684D
:1013C000C3F81C210C37BD465DF8047B704700BF95
:1013D0000060004080B400AF034BD3F814311846CE
:1013E000BD465DF8047B70470060004080B483B068
:1013F00000AF03463960FB71FB79002B0DD0FB7900
:10140000012B0AD0FB79022B07D0FB79032B04D0E8
:10141000FB79042B01D0FB79052B0948FA793B684D
:10142000012101FA03F319461346DB0013449B0024
:101430000344103359600C37BD465DF8047B704798
:101440000060004080B483B000AF03463960FB7198
:10145000FB79002B0DD0FB79012B0AD0FB79022BF5
:1014600007D0FB79032B04D0FB79042B01D0FB7947
:10147000052B0948FA793B68012101FA03F3194663
:101480001346DB0013449B000344103319600C37F0
:10149000BD465DF8047B70470060004080B584B0B5
:1014A00002AF39600146F971BA717B71FA79BB7983
:1014B00079790091397C0191104639683A6801F0D8
:1014C0004FFE0837BD4680BD80B400AF72B6084BF2
:1014D0001B68B3F1FF3F04D0054B1B685A1C044B3B
:1014E0001A60034B1B681846BD465DF8047B7047C5
:1014F0006C01002080B483B000AF0C4B1B68002B44
:101500000DD00A4B1B685A1E084B1A60074B1B680C
:101510007B607B68002B00D162B67B6800E0002313
:1015200018460C37BD465DF8047B70476C010020FF
:1015300080B500AF464B80221A70454B00225A708E
:10154000434801210222FFF70BFD414B80221A7014
:101550003F4B03225A703E4801210222FFF700FD53
:101560003B4B81221A703A4B01225A7038480121B4
:101570000222FFF7F5FC374B1B78002B2CD1344BA4
:1015800082221A70324B0F225A70314801210222F6
:10159000FFF7E6FC2E4B83221A702D4B00225A7067
:1015A0002B4801210222FFF7DBFC294B84221A7011
:1015B000274BFF225A70264801210222FFF7D0FC58
:1015C000234B85221A70224BFF225A70204801219A
:1015D0000222FFF7C5FC2FE01E4B1B78012B2BD1FD
:1015E0001B4B82221A701A4B00225A701848012194
:1015F0000222FFF7B5FC164B83221A70144B00220F
:101600005A70134801210222FFF7AAFC104B8422D2
:101610001A700F4B00225A700D4801210222FFF769
:101620009FFC0B4B85221A70094B08225A70084800
:1016300001210222FFF794FC054B86221A70044B0D
:1016400014225A70024801210222FFF789FC80BD52
:101650003C0100204401002080B584B002AF02208C
:1016600005210B22012301F0E1FD022004210B22C0
:10167000012301F0DBFD032001210122002301F001
:10168000D5FD032000210422002301F0CFFD03201B
:101690000021FFF7D7FE0220012101F029FD0023E0
:1016A0007B6002E07B6801337B607B68C72BF9DDE0
:1016B000FFF73EFF012300930320012100220123B5
:1016C000FFF7ECFE0B20FFF75BFE0B20FFF726FE7B
:1016D0000837BD4680BD00BF80B582B002AF002391
:1016E00000930320012100220023FFF7D7FE1F4BA8
:1016F00080221A701D4B00225A701C4801210222C0
:10170000FFF72EFC0B20FFF73BFE0B20FFF71EFE22
:101710000220012101F0ECFC0320012101F0E8FC92
:1017200003200021FFF762FE02200521FFF75EFE85
:1017300002200421FFF75AFE022005210022002387
:1017400001F074FD022004210022002301F06EFD4F
:10175000032001210022002301F068FD0320002165
:101760000022002301F062FDBD4680BD3C01002047
:1017700080B582B000AFFFF7A7FEFFF72BFE7860C1
:101780007868FFF717FE4B4BC0221A7049480121B9
:101790000122FFF7E5FB484B1B68002B03D1464BAA
:1017A00001221A6009E0444B1B68012B05D1424B12
:1017B00000221A60FFF79EFE78E0404B1B78002B5A
:1017C00037D13E4B01221A703D4B82221A703C4B9E
:1017D00000225A703A4801210222FFF7C1FB384B20
:1017E00083221A70364B00225A703548012102229A
:1017F000FFF7B6FB324B84221A70314B00225A702D
:101800002F4801210222FFF7ABFB2D4B85221A70D6
:101810002B4B08225A702A4801210222FFF7A0FB15
:10182000284B01221A70002004210222FEF794FDA9
:101830003AE0224B1B78012B36D1012004210222F1
:10184000FEF78AFD1D4B00221A701D4B84221A7070
:101850001B4BFF225A701A4801210222FFF780FB1E
:10186000174B85221A70164BFF225A70144801211B
:101870000222FFF775FB124B82221A70104B0F22C7
:101880005A700F4801210222FFF76AFB0C4B83229A
:101890001A700B4B00225A70094801210222FFF7EF
:1018A0005FFB084B00221A70FFF724FE0837BD4685
:1018B00080BD00BF40010020480100204C010020F5
:1018C0003C0100204401002080B487B000AF786064
:1018D00013460A46FA70BB70BB78002B04D0102365
:1018E000FB603E4B3B6103E00023FB603C4B3B61F4
:1018F0007B685A6B3B691340BB6000237B61FB78BC
:10190000062B5BD801A252F823F000BF2919000072
:10191000471900006B19000089190000BD1900006B
:10192000BD190000AD1900002E4B5B6803F4FE43A7
:101930007A6913437B612B4B5B6803F07F037A6901
:1019400013437B613DE0274B5B6803F0FE431B0EB6
:101950001B027A6913437B61224B5B6803F4FE032D
:101960001B0C7A6913437B612BE01E4B9B6803F4CD
:10197000FE437A6913437B611A4B9B6803F07F0334
:101980007A6913437B611CE0164B9B6803F0FE43AE
:101990001B0E1B027A6913437B61124B9B6803F495
:1019A000FE031B0C7A6913437B610AE00D4BDB6875
:1019B00003F07F037A6913437B6102E000237B61BC
:1019C00000BFFB687A699A40BB681A437B685A6318
:1019D0001C37BD465DF8047B704700BFFFFF808069
:1019E0008080FFFFB081E00F80B584B000AF7860E9
:1019F00039603B681B79FB72FB7A002B06D11B48D0
:101A0000002100F081F80346FB7208E0174800212E
:101A100000F07AF84FF4FA40002100F075F87B6886
:101A20000A225A603B681B781A063B68DB781B0465
:101A300003F4FE031A43FB7A1B0203F4FE431A432A
:101A40003B685B781B011A433B689B781343FB6040
:101A50003B685B79002B03D0FB6843F00803FB6015
:101A60007B68FA681A601037BD4680BD405DC600CD
:101A700080B584B000AF786039607B6802225A601C
:101A80003B689B78786819460022FFF71DFF3B688A
:101A90001B781A073B685B781B051A433B681B7968
:101AA0001B0213431A463B68DB781B011343FB60A0
:101AB0003B689B79002B03D0FB6843F08073FB608D
:101AC0003B68DB79002B03D0FB6843F00403FB6029
:101AD0003B685B79002B03D0FB6843F00203FB609B
:101AE0003B681B7A002B03D0FB6843F00103FB60CB
:101AF0003B689B781B04FA681343FB607B68FA68B9
:101B0000DA601037BD4680BD80B584B000AF786024
:101B100039607A68134B9A4202D9124B7B6006E017
:101B20007B68B3F5FA4F02D24FF4FA437B603B680F
:101B3000002B03D10C4800F01DFB38603A687B682D
:101B400013445A1E7B68B2FBF3F3FB60FB68002B67
:101B500002D0FB68013BFB60FB68DBB21846103724
:101B6000BD4680BD405DC6004081040080B582B0A6
:101B700000AF78607B68002B08D1114800F0FAFABA
:101B800078607B68002B01D101237B607A680D4B64
:101B90009A4201D90B4B7B607B6803F5742303F2F7
:101BA0003F237B607A68084BA3FB02139B0C7B608E
:101BB0007B68DBB2013BDBB218460837BD4680BD0F
:101BC000408104000048E80183DE1B4380B487B0F5
:101BD00000AFF860B9607A60FB6803F10473DA0063
:101BE000BB6813449B007B617B697A681A601C3771
:101BF000BD465DF8047B704780B485B000AF786067
:101C000039607B6803F10473DA003B6813449B007E
:101C1000FB60FB681B6818461437BD465DF8047B03
:101C2000704700BF80B485B000AF78607B68002B40
:101C300004D07B68B3F5004F00D800BF7B68B3FACF
:101C400083F3C3F11F03FB60FB6818461437BD46DE
:101C50005DF8047B704700BF80B400AF044BDB6CC1
:101C60001B0EDBB21846BD465DF8047B704700BF13
:101C7000B081E00F80B400AF054BDB6C03F47F0351
:101C80001B0CDBB21846BD465DF8047B704700BFF5
:101C9000B081E00F80B582B000AFFFF7EBFF0346E5
:101CA0004A2B04D0792B02D0482B22D023E0144BAE
:101CB0001B699BB203F03F039BB21B02FB80104BDE
:101CC0009B699BB203F0F0039AB2FB881343FB803D
:101CD0000B4BDB6903F0F0031B099AB2FB8813433B
:101CE000FB80FB88B3F5017F01D3064B04E0064B74
:101CF00002E0054B00E0002318460837BD4680BDD2
:101D0000D0FF0FE000366E010048E80180B584B0D6
:101D100000AF786039607A683B689A4294BF0023CC
:101D20000123DBB2FB6006481E21FA68FFF74EFF75
:101D300004480821FA68FFF749FF1037BD4680BD07
:101D400000800C4004800C4080B582B000AF074892
:101D50001E21FFF751FF786005480821FFF74CFF6F
:101D600038607B6818460837BD4680BD00800C404F
:101D700004800C4080B582B000AF214B5B6903F456
:101D8000E063B3F5007F1CD0B3F5007F05D8002BCE
:101D900025D0B3F5807F1FD02AE0B3F5C06F24D0E3
:101DA000B3F5E06F1ED0B3F5407F21D1FFF754FFAC
:101DB0000346122B02D9134B7B601CE0124B7B6055
:101DC00019E0FFF749FF0346122B02D90F4B7B6046
:101DD00011E00F4B7B600EE00E4B7B600BE00E4B77
:101DE0007B6008E00D4B7B6005E00D4B7B6002E003
:101DF00000237B6000BF7B6818460837BD4680BD66
:101E000000800C40804F120040420F0040B564003B
:101E1000C0CF6A00C0D8A700809FD500406F4001A6
:101E2000003FAB0180B582B000AF0D4800F08EFAE4
:101E30000346FB70FB78072B05D0082B07D102F077
:101E4000BFF8786006E0FFF795FF786002E00023B6
:101E50007B6000BF7B6818460837BD4680BD00BF69
:101E600006000C0080B485B000AF7860284BDB6BB7
:101E7000002B0CBF00230123BB72254B41F67132AE
:101E8000DA63234B5B6803F00703FB60FB68012BFD
:101E900001D9042B02D10023FB7202E00123FB7263
:101EA00000BF7A681B4B9A4207D9FB7A002B01D0FE
:101EB000052300E00423FB6016E07A68154B9A4284
:101EC0000BD87A68144B9A4207D9FB7A002B01D0C1
:101ED000032300E00123FB6006E0FB7A002B01D026
:101EE000022300E00023FB60094B094A526822F0FC
:101EF0000701FA680A435A60BB7A002B02D0044BF0
:101F00000022DA631437BD465DF8047B704700BFDA
:101F100000000C400048E8010024F40080B500AF48
:101F200002F044F803461846FFF79CFF80BD00BF4F
:101F300090B585B000AF78600023BB607B68344A01
:101F4000934203D0334A934200D000E000BF786848
:101F500000F0FCF90346FB607B682D4A934203D0F6
:101F60002C4A934206D00CE02B4B9B6A03F00303F0
:101F7000FB6006E0284B9B6A03F00C039B08FB60A8
:101F800000BFFB68032B3AD801A252F823F000BF30
:101F9000C71F0000A11F0000A91F0000B11F000003
:101FA00002F0A0F8B8602DE002F0B0F8B86029E0C7
:101FB00001F0E2FF0446FFF7C7FE0346013324FAAF
:101FC00003F3BB601EE00023BB607A68104B9A42AB
:101FD00003D07A680F4B9A4210D10F4B9A6A7968F6
:101FE0000B4B994201D1102300E0142322FA03F392
:101FF000002B03D002F080F8B86003E002E0002379
:10200000BB6000BFBB6818461437BD4690BD00BF1B
:102010000200180003001A0000800C4080B483B056
:1020200000AF7860094B5B6D03F00103002B00D01B
:1020300006E000BF054B1A6D7B681340002BF9D1F9
:102040000C37BD465DF8047B704700BF00800C4034
:1020500080B582B000AF104800F078F90346FB70FD
:10206000FB78032B07D0082B09D0022B0BD102F0F1
:102070004DF878600AE002F035F8786006E001F08B
:102080009FFF786002E000237B6000BF7B681846FA
:102090000837BD4680BD00BF0723200090B587B03C
:1020A00000AF78600B46FB7000233B617B681B0A26
:1020B00003F00F03013B092B49D801A252F823F08A
:1020C000052100000B210000E92000004F21000045
:1020D0004F210000112100001B2100004F210000B2
:1020E0004F210000252100001B4B7B611B4800F0A5
:1020F00041F80446FFF7CEFD034620461946FFF798
:1021000005FE12E0164B7B610FE0164B7B610CE085
:10211000154B7B6101233B6107E0144B7B6110236E
:102120003B6102E0124B7B6100BF7B681B0B03F03D
:102130001F03FB603B69002B02D03869FFF76EFF7D
:10214000FB787869F9681A46FFF740FD00E000BFA8
:102150001C37BD4690BD00BF40800C4000430200CC
:1021600008800C4044800C4058800C4060800C403B
:1021700078800C4090B585B000AF78607B6803F440
:102180007813B3F5A01F00F0AB80B3F5A01F1AD8E9
:10219000B3F5402F00F0BF80B3F5402F08D8B3F55A
:1021A000003F3CD0B3F5802F2DD0002B27D0BEE0D0
:1021B000B3F5801F3CD0B3F5901F47D0B3F5602F27
:1021C00000F0AD80B3E0B3F5001F00F0AC80B3F5D4
:1021D000001F0AD8B3F5C01F25D0B3F5D01F7AD0A1
:1021E000B3F5B01F00F08980A1E0B3F5181F4ED001
:1021F000B3F5201F62D0B3F5101F35D097E001F082
:10220000DFFEF86096E001F0DBFEF8604C4B9B6867
:1022100003F00F03FA6822FA03F3FB608AE001F08F
:10222000ABFEF86086E04748FFF782FEF86081E089
:102230004448FFF77DFEF860414B9B6E03F0F003CE
:102240001B09FA6822FA03F3FB6073E03D48FFF7CD
:102250006FFEF8603A4B9B6E03F470631B0AFA68DA
:1022600022FA03F3FB6065E03648FFF761FEF86091
:10227000334B9B6E03F440531C0B1020FFF7D2FC32
:1022800003462344FA6822FA03F3FB6052E02D4828
:10229000FFF74EFEF8602A4B9B6E03F440531B0B76
:1022A000FA6822FA03F3FB60254BDB6F03F00703A8
:1022B0000133FA68B2FBF3F3FB603BE02148FFF720
:1022C00037FEF8601E4B9B6E03F00303FA6822FA98
:1022D00003F3FB602EE01C48FFF72AFEF86029E0BC
:1022E0001948FFF725FEF860154B1B6F03F0030339
:1022F000FA6822FA03F3FB601CE01348FFF718FEAC
:10230000F8600F4B1B6F03F030031B09FA6822FAC9
:1023100003F3FB600EE0FFF785FDF8600AE0FFF7CE
:1023200029FDF86006E0FFF793FEF86002E0002365
:10233000FB6000BFFB6818461437BD4690BD00BF68
:1023400000800C400200180003001A0080B485B021
:1023500000AF78600123FB737B6803F00F03BB6061
:10236000BB68013B062B00F2938001A252F823F0D8
:102370008D230000C3230000FF23000091240000F0
:10238000912400003B2400005D240000454BDB6AE3
:1023900003F47053B3F5805F09D0B3F5005F03D049
:1023A000B3F5006F06D008E00223FB7308E00323B7
:1023B000FB7305E00423FB7302E00523FB7300BFFE
:1023C00069E0384B9B6A03F00303022B06D0032B12
:1023D00007D0012B08D10323FB730FE00223FB730B
:1023E0000CE00623FB7309E02E4B9B6A03F4803359
:1023F000002B02D00923FB7300E000BF4BE0294B08
:102400009B6A03F00C03082B06D00C2B07D0042B7F
:1024100008D10323FB730FE00223FB730CE00623B8
:10242000FB7309E01F4B9B6A03F48013002B02D05F
:102430000923FB7300E000BF2DE01A4B1B6803F07B
:102440008053002B03D0B3F1805F03D023E0072338
:10245000FB7302E00823FB7300BF1CE0114BDB6A37
:1024600003F46033B3F5803F08D0B3F5003F08D0E4
:10247000B3F5004F08D10823FB7308E00223FB7378
:1024800005E00323FB7302E00123FB7300BF02E0BE
:102490000023FB7300BFFB7B18461437BD465DF875
:1024A000047B704700800C4090B589B000AF786025
:1024B0000B46FB700323FB610323FB7600233B6188
:1024C0007B6803F00F03FB60FB68013B062B00F207
:1024D000348101A252F823F0F5240000E125000028
:1024E000E12500003B2700003B270000A926000053
:1024F000D3260000FB78023B072B00F2228101A2C9
:1025000052F823F0252500002F2500003925000072
:1025100083250000432700004327000043270000D5
:10252000432700000423FB610023FB7639E00323EB
:10253000FB610123FB7634E00223FB610223FB767F
:10254000FFF7A8FB03465C1CFFF7A4FB03462046ED
:102550001946FFF7DBFB01F0B3FD02467C4B9A42C4
:1025600006D97C4B7B4A126842F060021A6018E080
:10257000784B784A126822F0600242F020021A601A
:102580000FE00123FB610323FB76FFF783FB034688
:102590005C1CFFF77FFB034620461946FFF7B6FB9E
:1025A00000BFFB7E18460121012200F0D9F8FFF799
:1025B000B5FC684BFA695A626748FFF7DBFD0446D1
:1025C000FFF768FB034620461946FFF79FFB00F024
:1025D000FFFC01F0D1FCB860B868FFF743FCADE048
:1025E000FB78013B082B00F2AE8001A252F823F0E9
:1025F000152600001B2600002B26000047270000A0
:10260000472700003B26000047270000472700001F
:102610005F26000000237B6126E0002001210122CB
:1026200000F09EF802237B611EE0012001210122BF
:1026300000F096F801237B6116E001F09DFCB86084
:10264000FFF728FB0346B8681946FFF75FFB4348CE
:1026500004210122FFF7BAFA03237B6104E000237F
:102660007B6101233B6100BFFB68022B0DD1394A1E
:10267000384B9B6A23F4803323F0030379691943B1
:102680003B691B040B43936258E0324A314B9B6A0F
:1026900023F4801323F00C037969890019433B6903
:1026A0001B050B43936249E0FB78072B02D0082BF4
:1026B00007D049E0274B274A126822F080521A605F
:1026C00006E0244B234A126842F080521A6000BF91
:1026D00034E0FB78032B14D0082B22D0022B00D03F
:1026E00032E000200121012200F03AF8194B40228B
:1026F0005A6200BF174BDB6A03F48033002BF9D01A
:102700001AE001200121012200F02AF8114B602279
:102710005A6200BF0F4BDB6A03F40033002BF9D081
:102720000AE00C4B20225A6200BF0A4BDB6A03F41A
:102730000043002BF9D000BF00E000BFFFF704FB0F
:1027400002E000BF00E000BF2437BD4690BD00BFDF
:102750000048E80100800C400043020040800C402B
:1027600080B586B000AF13460246FA710A46BA71C8
:102770007B71FB79042B4AD801A252F823F000BFE9
:10278000CD270000BF270000A327000095270000E9
:10279000B127000001233B610223FB6001237B6121
:1027A0001DE004233B610823FB6003237B6116E0EB
:1027B00010233B612023FB6005237B610FE0402356
:1027C0003B618023FB6007237B6108E04FF480734B
:1027D0003B614FF40073FB6009237B6100BFBB7951
:1027E000002B0ED00C4B3A691A627B79002B0BD070
:1027F00000BF0A487969FFF7FFF90346002BF8D0BC
:1028000002E0054BFA681A6200F0E2FB00E000BF4C
:102810001837BD4680BD00BF00800C402C800C40A6
:1028200080B483B000AF0346FB71084B97F90720D3
:102830005209F97901F01F01012000FA01F143F872
:1028400022100C37BD465DF8047B704700E100E0C4
:1028500080B483B000AF0346FB71094B97F90720A2
:102860005209F97901F01F01012000FA01F120322B
:1028700043F822100C37BD465DF8047B704700BF5B
:1028800000E100E080B483B000AF0346FB71094B68
:1028900097F907205209F97901F01F01012000FA88
:1028A00001F1603243F822100C37BD465DF8047B1D
:1028B000704700BF00E100E080B487B000AFF8606F
:1028C000B9607A60FB6803F10473DA00BB681344F3
:1028D0009B007B617B697A681A601C37BD465DF896
:1028E000047B704780B489B000AF7860F970BA702B
:1028F0007B707B681A013C4B9B681344BB61BB78BF
:10290000002B02D0BB69FB6105E07B681A01364BE6
:10291000DB681344FB61BB69DB687B617B69002B6F
:1029200002D0BA787B691A72FB6A002B14D0FB695B
:102930009B6803F040639B0E3B613B69032B03D113
:10294000FB69FA6A1A6007E03B693A6B9A40FB6AD6
:1029500013441A46FB691A60BB6A002B12D0FB694C
:102960009B689B0F3B613B69032B03D1FB69BA6AF0
:102970005A6007E03B693A6B9A40BB6A13441A46B7
:10298000FB695A607B68012202FA03F3FB607B78E3
:10299000002B03D0144BFA689A6102E0124BFA68DC
:1029A000DA61BB78002B03D00F4BFA685A6302E060
:1029B0000D4BFA681A63FB699B6823F47F5323F07D
:1029C0003703BB603B6B1B01BA681343BB60FB78EA
:1029D000BA681343BB60FB69BA689A602437BD4686
:1029E0005DF8047B704700BF00200C4080B58AB0C2
:1029F00000AF334B03F580531B68BB61304B03F5CD
:102A000080530C331B68BA691340BB612C4B9B6B22
:102A10007B61BA697B6913403B620023FB6149E03B
:102A200000237B623BE03B6A03F00103002B30D0C4
:102A3000234B9B683B6101227B6A02FA03F3FB6034
:102A40001F4B03F580530833FA681A607B6A1B0139
:102A50003A691344DB68BB60BB68002B19D0BB68C4
:102A60001B7A7B60BB681B7A83F00103DAB2BB6818
:102A70001A72BB681B68002B0BD0BB681B68786A96
:102A80007A68002A0CBF00220122D1B2BA685268CB
:102A900098473B6A5B083B627B6A01337B623B6A17
:102AA000002BC0D17B69DA43BB6913403B62FB69F1
:102AB0000133FB61FB69012BB2DD2837BD4680BDC8
:102AC00000200C4080B588B004AFF8607B600B46F6
:102AD000FB721346BB72FA7ABB7A79680091B969C6
:102AE0000191F9690291F8680121FFF7FBFE044B9F
:102AF000FA68012101FA02F29A621037BD4680BDE0
:102B000000200C4080B584B000AF786039601F4B66
:102B10009B68FB607B681B01FA6813443A68926803
:102B2000DA603B681B78002B06D0184B7A680121CD
:102B300001FA02F29A6305E0144B7A68012101FA66
:102B400002F2DA63114B3A6851687A6802F58862DA
:102B500043F822103B685B78002B0ED00B4B7A6851
:102B6000012101FA02F203F5805308331A60084884
:102B700079680122FFF7A0FE04E005487968002289
:102B8000FFF79AFE1037BD4680BD00BF00200C4005
:102B90000C300C4080B487B000AFF8600B467A6010
:102BA000FB72FB7A002B03D0154B9B687B6102E024
:102BB000134BDB687B61FB681B017A6913447B6103
:102BC0007B681B789A077B689B781B071A437B6896
:102BD0005B789B061A437B689B781B0613431A4657
:102BE0007B681B799B041A437B68DB789B031A4341
:102BF0007B699A601C37BD465DF8047B704700BF57
:102C000000200C4080B582B000AF786010480121F0
:102C1000FFF744FA00F020F80020FFF733FE002011
:102C2000FFF7FEFD0B4B03F580530C334FF00042D2
:102C30001A60084B7A6852689A60064B7A68127874
:102C4000520142F001025A600837BD4680BD00BF04
:102C50000003020000200C4080B582B000AF0020CD
:102C6000FFF7F6FD1C4B00225A601B4B40F6FF722B
:102C7000DA61194B40F6FF725A62174B40F6FF7249
:102C8000DA62154B40F6FF725A63134B40F6FF723F
:102C9000DA63114B0122DA640F4B03F580530C33D6
:102CA00000221A600C4B03F5805308330B4A1A605C
:102CB00000237B6009E0084B7A6802F588620021F6
:102CC00043F822107B6801337B607B680B2BF2DDBD
:102CD0000837BD4680BD00BF00200C40FF0F0080BC
:102CE00080B500AF01F048F980BD00BF80B400AFEF
:102CF000034B0022C3F88420BD465DF8047B704777
:102D000000800C4080B400AF044B45F60E02C3F8BF
:102D10008420BD465DF8047B704700BF00800C40F6
:102D200080B582B000AF384BD3F8843003F0010394
:102D30007B60FFF7E7FF00233B60344B1B6803F029
:102D400001033A6813433B60304B1B6803F01003E8
:102D50003A6813433B602D4B1B6803F040033A680D
:102D600013433B60294B1B6803F004033A68134389
:102D70003B60264B1B6803F480733A6813433B6047
:102D8000214B3A681A62214B1B6803F47053B3F568
:102D9000805F06D0B3F5005F0ED0B3F5006F16D09C
:102DA00020E000BF184BDB6A03F08003002BF9D052
:102DB000154B03225A6215E000BF134BDB6A03F484
:102DC0000073002BF9D0104B04225A620AE000BFB6
:102DD0000D4BDB6A03F00803002BF9D00A4B0222EB
:102DE0005A6200BF094B1B6803F00103002B02D19C
:102DF000054B02221A627B68002B01D0FFF776FF99
:102E00000837BD4680BD00BF00800C405001002047
:102E100080B483B000AF174B1B699BB203F03F0334
:102E20009BB21B02FB80134B9B699BB203F0F00328
:102E30009AB2FB881343FB800E4BDB6903F0F0036F
:102E40001B099AB2FB881343FB80FB88B3F5827F92
:102E500003D3FB88B3F5017F01D1012300E00023F8
:102E600003F00103DBB218460C37BD465DF8047B66
:102E7000704700BFD0FF0FE080B586B000AF0346BB
:102E8000FB711F4BDA6A1F4B1A601F4B1E4A1269F7
:102E900042F004021A61FFF7BBFF0346FB75FB7D9E
:102EA000002B11D0194B1A68194B1340FB60174BBC
:102EB000FA68C3F88020154B5B6823F046033B613A
:102EC000124B3A69C3F8842030BFFB7D002B05D03C
:102ED0000E4BFA681A600D4B3A695A60FB79002B69
:102EE00002D0FFF71DFF07E0064B1B6803F4806369
:102EF000002B01D1FFF7F4FE1837BD4680BD00BF9F
:102F000000800C405001002000ED00E000E100E0F6
:102F10009CF1FD0080B586B000AF0346FB71274BE6
:102F2000DA6A274B1A60254BD3F8843003F001038B
:102F30007B61FFF7E7FE214B4FF420721A627B6939
:102F4000002B01D0FFF7D2FE1E4B1E4A126942F041
:102F500004021A61FFF75CFF0346FB74FB7C002B45
:102F600011D0194B1A68194B1340BB60164BBA6845
:102F7000C3F88020144B5B6823F04603FB60124BC0
:102F8000FA68C3F8842030BFFB7C002B05D00E4BC1
:102F9000BA681A600C4BFA685A60FB79002B02D0B1
:102FA000FFF7BEFE07E0064B1B6803F48063002BAF
:102FB00001D1FFF795FE1837BD4680BD00800C405B
:102FC0005001002000ED00E000E100E09CF1FD0078
:102FD00080B400AF034BDA6A034B1A60BD465DF85C
:102FE000047B704700800C405001002080B487B003
:102FF00000AFF860B9607A60FB6803F10473DA002F
:10300000BB6813449B007B617B697A681A601C373C
:10301000BD465DF8047B704780B485B000AFF860B2
:10302000B9607A60FB681A68BB68DB431A407B684A
:103030001A43FB681A601437BD465DF8047B70477D
:1030400080B483B000AF03463960FB71FB79002B7D
:103050000DD0FB79012B0AD0FB79022B07D0FB792D
:10306000032B04D0FB79042B01D0FB79052B0948F5
:10307000FA793B68012101FA03F319461346DB0094
:1030800013449B000344103359600C37BD465DF870
:10309000047B70470060004080B483B000AF0346FB
:1030A0003960FB71FB79002B0DD0FB79012B0AD025
:1030B000FB79022B07D0FB79032B04D0FB79042B7F
:1030C00001D0FB79052B0948FA793B68012101FA07
:1030D00003F319461346DB0013449B0003441033EB
:1030E00019600C37BD465DF8047B704700600040F6
:1030F00090B482B000AF02460B46FA71BB71FB7907
:10310000002B0ED0FB79012B0BD0FB79022B08D0C2
:10311000FB79032B05D0FB79042B02D0FB79052B1F
:1031200003D1BB79032B00D800BF0C48FA790B4CB4
:10313000F9790B46DB000B449B0023441B6823F00A
:103140000301BB7919431346DB0013449B0003447E
:1031500019600837BD4690BC704700BF0060004052
:1031600080B586B000AFB9607A600246FA73BB736F
:10317000FB7B002B0DD0FB7B012B0AD0FB7B022BB2
:1031800007D0FB7B032B04D0FB7B042B01D0FB7B04
:10319000052BBB68072B0ED8BB689B0007229A4003
:1031A000F97BBB689B0001FA03F31A4811461A46E3
:1031B000FFF732FF10E0BB68083B7B617B699B0037
:1031C00007229A40F97B7B699B0001FA03F31248BE
:1031D00011461A46FFF720FFBB7B1048B9681A4614
:1031E000FFF704FF97F820300D48B9681A46FFF73B
:1031F000FDFE0C4BBA68012101FA02F2C3F81C2152
:1032000097F824300848B9681A46FFF7EFFE1837D8
:10321000BD4680BD0061004004610040086100407F
:103220000C610040006000401061004090B585B026
:1032300000AFB9607B600346FB731346BB73FB7B37
:10324000002B0DD0FB7B012B0AD0FB7B022B07D080
:10325000FB7B032B04D0FB7B042B01D0FB7B052BDA
:10326000BB7B002B0DD07B68002B05D0FB7B184669
:10327000B968FFF711FF04E0FB7B1846B968FFF758
:10328000DFFEBB68072B1DD82B48FA7B2A4CF97B45
:103290000B46DB000B449B0023445968BB689B0032
:1032A0000F2404FA03F3DB431940BC7BBB689B008B
:1032B00004FA03F319431346DB0013449B00034451
:1032C000596024E01C48FA7B1B4CF97B0B46DB0061
:1032D0000B449B00234408331968BB6803F1804307
:1032E000083B9B000F2404FA03F3DB431940BC7B2B
:1032F000BB6803F18043083B9B0004FA03F31943C6
:103300001346DB0013449B00034408331960BB7B66
:10331000002B0DD17B68002B05D0FB7B1846B968CC
:10332000FFF7BAFE04E0FB7B1846B968FFF788FE9A
:103330001437BD4690BD00BF0060004080B487B028
:1033400000AFF860B9607A60FB6803F10473DA00DB
:10335000BB6813449B007B617B697A681A601C37E9
:10336000BD465DF8047B704780B485B000AFF8605F
:10337000B9607A60FB681A68BB68DB431A407B68F7
:103380001A43FB681A601437BD465DF8047B70472A
:1033900080B588B000AFF860B9607A60FB707B6878
:1033A000002B00D15EE0FB681B6823F44072FB68D1
:1033B0001A60FA68FB781B0210464FF440711A46F7
:1033C000FFF7D2FFBB68002B03D12848FEF7D2FEDF
:1033D000B8604FF0FF33BB61FB681B6803F002036A
:1033E000002B11D0FB78012B07D0022B08D0002B2B
:1033F00000D019E01E4BBB6105E01E4BBB6102E033
:103400001D4BBB6100BF0FE0FB78012B06D0022BE8
:1034100007D0002B08D1194BBB6105E0184BBB61ED
:1034200002E0184BBB6100BFFB78174AD35C7B619D
:103430007B689B00BA68D21A7B69796801FB03F349
:10344000B2FBF3F3013BFB61FB681B6803F0020373
:10345000002B04D0FB69002B01D10123FB61FA6929
:10346000FB681A612037BD4680BD00BF4081040063
:1034700040164000C0D8A7008050740180841E0010
:1034800040548900002D3101B04F000080B582B05A
:1034900000AF786039607A68174B9A4203D07A6837
:1034A000164B9A4200D100BF7B6800225A637B68AA
:1034B000134A1A637A683B685B78002B01D00023BB
:1034C00000E00123104601211A46FFF737FF3B6851
:1034D00059683B689A683B681B7B7868FFF758FF20
:1034E0007A683B681B78104600211A46FFF726FFD2
:1034F0000837BD4680BD00BF00A0004000A40040CA
:10350000CFFF010080B489B000AF78607A689D4B2E
:103510009A4203D07A689C4B9A4200D100BF7A68E5
:10352000984B9A4202D1994BBB6108E07A68964B5E
:103530009A4202D1964BBB6101E0FC2300E2BB69D9
:103540009B687B617B689B6A3B613B6903F4C0635A
:10355000002B14D03B6903F40073002B03D0BB692C
:10356000FD225A7007E03B6903F48063002B02D010
:10357000BB69FE225A70BB6909221A70CCE1BB6993
:103580001B78082B00F2C08101A252F823F000BF83
:10359000B5350000073600008D360000DF3600002C
:1035A00031370000953700001D3800005B380000FF
:1035B000ED3800007B695B8803F01003002B09D015
:1035C0007B691B881B0A9BB203F0060343F0F003E0
:1035D000FB610EE07B691B8803F0FE03FB617B69E6
:1035E0005B8803F00203002B03D0FB6943F0010367
:1035F000FB61BB6901221A707B68FA695A627B68B9
:1036000001225A6088E13B6903F08003002B0CD053
:103610007B6880221A63BB69FF225A70BB6908224B
:103620001A707B6802225A602FE03B6903F0400366
:10363000002B2AD07B6840221A637B695B8803F0E9
:103640001003002B08D0BB6902221A707B691B880B
:10365000DAB27B685A6218E07B695B8803F0020388
:10366000002B0ED0BB6907221A70BB691B797A69DF
:10367000DB0013441B89012B07D17B6808225A60A9
:103680004AE1BB6905221A7045E145E13B6903F057
:103690008003002B0CD07B6880221A63BB69FF2259
:1036A0005A70BB6908221A707B6802225A6015E0C2
:1036B0003B6903F04003002B10D07B6840221A6363
:1036C0007B695B8803F00203002B03D0BB690322F4
:1036D0001A7020E1BB6905221A701CE11CE17B69AC
:1036E0005B8803F01003002B09D07B691B881B0A41
:1036F0009BB203F0060343F0F003FB6104E07B6937
:103700001B8803F0FE03FB617B695B8803F0040305
:10371000002B03D0FB6943F00103FB61BB6904226A
:103720001A707B6801225A607B68FA695A62F3E07A
:103730003B6903F08003002B0CD07B6880221A6366
:10374000BB69FF225A70BB6908221A707B6802228B
:103750005A6015E03B6903F04003002B10D07B68F2
:1037600040221A637B695B8803F00403002B03D0BB
:10377000BB6907221A7003E0BB6905221A70CAE010
:10378000CAE000BF00A0004000A400405401002097
:1037900060010020BB695A88BB691B797969DB002D
:1037A0000B441B899A4224D3BB6900225A80BB690F
:1037B0001B790133DAB2BB691A717B695B8803F04C
:1037C0000403002B03D0BB6903221A70A3E07B69BA
:1037D0005B8803F00103002B03D1BB691B79012B2C
:1037E00006D9BB6908221A707B6802225A6093E0EE
:1037F00091E0BB691B797A69DB0013445A68BB69A5
:103800005B88591C88B2B969488013441B781A46F2
:103810007B685A62BB6906221A707DE03B6903F03F
:103820008003002B0CD07B6880221A63BB69FF22C7
:103830005A70BB6908221A707B6802225A600BE03A
:103840003B6903F04003002B06D07B6840221A63DB
:10385000BB6905221A705EE05EE03B6903F020035D
:10386000002B42D0BB691B797A69DB0013441B89AA
:10387000FB607B68DB69FB72BB695B881A46FB688F
:103880009A420ED2BB691B797A69DB0013445A68ED
:10389000BB695B88591C88B2B96948801344FA7ABD
:1038A0001A70BB695B881A46FB689A420CD3FB68A6
:1038B000012B02D17B6808225A60BB6908221A706A
:1038C0007B6802225A6010E07B6804225A60FB6821
:1038D000012B0AD9BB695B881A46FB68013B9A42F7
:1038E00003D17B6808225A6016E015E03B6903F4B7
:1038F0008073002B07D07B684FF480721A63BB691A
:1039000009221A7008E007E0BB69FB225A70BB6904
:1039100009221A7000E015E6BB691B78092B0BD150
:103920007B6800225A63BB695B785BB2012B05D1CF
:10393000BB6900225A7001E0012301E0BB695B789A
:103940005BB218462437BD465DF8047B704700BF64
:1039500080B584B000AF786039607A68304B9A42A5
:1039600003D07A682F4B9A4200D100BF7A682C4B63
:103970009A4202D12C4BFB6008E07A68294B9A42AC
:1039800002D12A4BFB6001E0FC2343E07B689B688B
:1039900003F00103002B02D07B6820225A603B68B1
:1039A0005B8803F00203002B03D03B681B89002BCC
:1039B00009D03B685B8803F00403002B05D03B680B
:1039C0001B8A002B01D1FC2324E0FB6800221A7023
:1039D000FB6801225A70FB6800225A80FB680022B3
:1039E0001A71FB683A689A607B68C0225A607B68EB
:1039F0009B6A03F02003002B01D07B68DB697B68A6
:103A00000B4A1A637B684FF4FC625A637868FFF7CD
:103A100079FD03465BB218461037BD4680BD00BF36
:103A200000A0004000A400405401002060010020DC
:103A3000CFFF010080B487B000AFF860B9607A6052
:103A4000FA68114B9A4208D1BB68012B05D87B68F4
:103A50001B0C1B04002B00D100BFBB68002B02D045
:103A6000012B04D00AE0FB6810337B6103E0FB68A4
:103A700014337B6100BF7B697A681A601C37BD46CE
:103A80005DF8047B704700BF0020084080B483B01D
:103A900000AF78600B46FB70FB78002B03D07B688F
:103AA00001225A6002E07B6802225A600C37BD4650
:103AB0005DF8047B704700BF80B485B000AF7860CC
:103AC00039600023FB603B681B7883F00103DBB2A5
:103AD000002B08D07B689B6803F00103002B02D009
:103AE0007B6802225A603B685B78002B03D0FB683E
:103AF00043F48053FB603B689B78002B03D0FB684A
:103B000043F48063FB603B68DB78002B03D0FB68E9
:103B100043F40063FB603B681B79002B03D0FB6818
:103B200043F40073FB603B685B79002B03D0FB68B8
:103B300043F48073FB603B689B79002B03D0FB68E8
:103B400043F04003FB603B68DB79002B03D0FB684C
:103B500043F08003FB603B681B7A9B00FA681343C9
:103B6000FB603B685B7A1B01FA681343FB603B68B0
:103B70009B7AFA681343FB607B68FA681A603B68BB
:103B80001B78002B08D07B689B6803F00103002B97
:103B900002D17B6801225A601437BD465DF8047B70
:103BA000704700BF80B483B000AF786039607B6835
:103BB0001B6C03F00103002B00D006E000BF7B6804
:103BC0005A6C3B681340002BF9D10C37BD465DF8A9
:103BD000047B704780B586B000AFF860B9607A604A
:103BE000BB68002B12D1FA68164B9A4202D1164BD1
:103BF0007B6107E0FA68154B9A4202D1144B7B6156
:103C000000E01BE07869FEF7B5FAB860BB685A01BE
:103C10007B68B2FBF3F33B613B69203B3B613B6953
:103C2000DB003B613A6947F6F87313403B61F86883
:103C30000421FFF7B7FFFB683A69DA601837BD4621
:103C400080BD00BF004008407007140000440840D9
:103C50007017160080B483B000AF78600B46FB701D
:103C6000FB78002B08D000BF7B685B6C002BFBD17E
:103C70007B6801221A6402E07B6800221A640C3718
:103C8000BD465DF8047B704780B582B000AF7860B8
:103C900039607A681B4B9A4203D07A681A4B9A4271
:103CA00000D100BF78680221FFF77CFF7B680A2201
:103CB0005A6078680121FFF7CDFF7B681B6823F00D
:103CC0001C023B681B7B1A433B685B7B1A433B68C7
:103CD0009B7B1A437B681A603B685A683B689B6809
:103CE000786811461A46FFF775FF3B681B781A463D
:103CF0007B685A6078680021FFF7ACFF0837BD4643
:103D000080BD00BF004008400044084080B582B03C
:103D100000AF78607A68174B9A4203D07A68164BE6
:103D20009A4200D100BF78680121FFF793FF7B68BA
:103D3000EA225A607B6800221A607B680022DA60FF
:103D40007B6800221A617B6800225A617B6800222E
:103D50009A637B6840F2F9725A637B680022DA63E7
:103D60007B6800225A6578680021FFF773FF0837E7
:103D7000BD4680BD004008400044084080B582B088
:103D800000AF78600B46FB7000BF7B689B6803F058
:103D90001003002BF9D078684021FFF703FFFA7871
:103DA0007B689A620837BD4680BD00BF80B485B08D
:103DB00000AF7860194B5B69DBB203F00F03DBB235
:103DC0009B00FB73154B1B6903F0C0039B09DAB220
:103DD000FB7B1343FB737B68FA7B9A700F4B1B6969
:103DE000DBB203F03F03DAB27B685A700B4B9B697E
:103DF000DBB223F00F03FB73084BDB6903F0F00326
:103E00001B09DAB2FB7B1343FB737B68FA7B1A70E6
:103E10001437BD465DF8047B704700BFD0FF0FE04C
:103E200080B483B000AF786039607A683B4B9A42C7
:103E30000BD07A683A4B9A4207D07A68394B9A424B
:103E400003D07A68384B9A4200D100BF3B681B7898
:103E500083F00103DBB2002B02D07B6802225A60A0
:103E60007B6800225A623B689B781A063B68DB78C5
:103E70001B041A433B689B799B021A433B68DB791E
:103E80001B021A433B681B7A1A433B685B78002B82
:103E900001D0402300E000231A433B685B7A002BEB
:103EA00001D0802300E000231A433B689B7A002B5B
:103EB00001D0202300E000231A433B68DB7A002B6B
:103EC00001D0102300E000231A433B681B79002B2C
:103ED00002D04FF4005300E000231A433B685B79A3
:103EE000002B02D04FF0805300E000231A433B68C0
:103EF0001B7B002B01D0082300E000231A437B68C2
:103F00001A603B681B78002B02D07B6801225A6044
:103F10000C37BD465DF8047B704700BF00000140D0
:103F20000004014000080140000C014006488047A1
:103F30000649074A074B9A42BEBF51F8040B42F8A4
:103F4000040BF8E7FCF7F6F8D9400000C84F000072
:103F50000000002078000020FEE700BF80B400AF22
:103F6000044BDB6C1B0EDBB21846BD465DF8047BD0
:103F7000704700BFB081E00F80B582B000AF00F0A5
:103F80001FF87860074B5B6803F00F037A6822FA2A
:103F900003F37B60044B7A681A607B681846083725
:103FA000BD4680BD00800C40100C002080B400AFE6
:103FB000024B1846BD465DF8047B7047006CDC027E
:103FC00080B582B000AF334BDB6A03F47053B3F5B6
:103FD000805F0AD0B3F5005F03D0B3F5006F08D05F
:103FE0000BE02D4B1B687B6047E04FF400437B6088
:103FF00043E02A4B1B687B603FE0264BDB6803F401
:10400000E063B3F5007F1BD0B3F5007F05D8002B2C
:1040100024D0B3F5807F16D02BE0B3F5806F09D0A4
:10402000B3F5A06F03D0B3F5407F06D021E01C4B61
:104030007B6021E01B4B7B601EE01B4B7B601BE029
:104040001A4B7B6018E0FFF789FF0346122B02D959
:10405000174B7B6010E0174B7B600DE0FFF77EFF96
:104060000346122B02D9144B7B6005E0134B7B6097
:1040700002E000237B6000BF00BF064B1B6803F417
:10408000E0339B0B01337A68B2FBF3F31846083731
:10409000BD4680BD00800C400800002004000020C8
:1040A000003FAB01406F4001809FD500C0D8A70002
:1040B00040B56400C0CF6A00804F120040420F003C
:1040C00080B400AF034B1B681846BD465DF8047B07
:1040D000704700BF0400002080B400AFBD465DF80B
:1040E000047B704780B400AF4FF400431846BD46D0
:1040F0005DF8047B704700BF80B400AF4FF47A7363
:104100001846BD465DF8047B704700BF80B400AF21
:10411000034B1B681846BD465DF8047B704700BF23
:104120000800002081F0004102E000BF83F000435E
:1041300030B54FEA41044FEA430594EA050F08BF42
:1041400090EA020F1FBF54EA000C55EA020C7FEA06
:10415000645C7FEA655C00F0E2804FEA5454D4EB83
:104160005555B8BF6D420CDD2C4480EA020281EA4D
:10417000030382EA000083EA010180EA020281EA85
:104180000303362D88BF30BD11F0004F4FEA0131D7
:104190004FF4801C4CEA113102D0404261EB4101E6
:1041A00013F0004F4FEA03334CEA133302D052426C
:1041B00063EB430394EA050F00F0A780A4F1010428
:1041C000D5F1200E0DDB02FA0EFC22FA05F2801862
:1041D00041F1000103FA0EF2801843FA05F3594148
:1041E0000EE0A5F120050EF1200E012A03FA0EFCC7
:1041F00028BF4CF0020C43FA05F3C01851EBE371F1
:1042000001F0004507D54FF0000EDCF1000C7EEB0D
:1042100000006EEB0101B1F5801F1BD3B1F5001F4B
:104220000CD349085FEA30004FEA3C0C04F101046A
:104230004FEA445212F5800F80F09A80BCF1004F93
:1042400008BF5FEA500C50F1000041EB045141EA15
:10425000050130BD5FEA4C0C404141EB010111F416
:10426000801FA4F10104E9D191F0000F04BF0146C1
:104270000020B1FA81F308BF2033A3F10B03B3F19F
:1042800020020CDA0C3208DD02F1140CC2F10C022F
:1042900001FA0CF021FA02F10CE002F11402D8BF8D
:1042A000C2F1200C01FA02F120FA0CFCDCBF41EA59
:1042B0000C019040E41AA2BF01EB0451294330BD28
:1042C0006FEA04041F3C1CDA0C340EDC04F1140405
:1042D000C4F1200220FA04F001FA02F340EA0300DC
:1042E00021FA04F345EA030130BDC4F10C04C4F122
:1042F000200220FA02F001FA04F340EA0300294602
:1043000030BD21FA04F0294630BD94F0000F83F44B
:10431000801306BF81F480110134013D4EE77FEA2E
:10432000645C18BF7FEA655C29D094EA050F08BF7A
:1043300090EA020F05D054EA000C04BF194610465B
:1043400030BD91EA030F1EBF0021002030BD5FEA9F
:10435000545C05D14000494128BF41F0004130BDC7
:1043600014F580043CBF01F5801130BD01F000451B
:1043700045F0FE4141F470014FF0000030BD7FEA8E
:10438000645C1ABF194610467FEA655C1CBF0B4689
:10439000024650EA013406BF52EA033591EA030FA0
:1043A00041F4002130BD00BF90F0000F04BF002198
:1043B000704730B54FF4806404F132044FF00005CB
:1043C0004FF0000150E700BF90F0000F04BF002144
:1043D000704730B54FF4806404F1320410F00045AA
:1043E00048BF40424FF000013EE700BF42004FEAA5
:1043F000E2014FEA31014FEA02701FBF12F07F4322
:1044000093F07F4F81F06051704792F0000F14BF1E
:1044100093F07F4F704730B54FF4607401F0004562
:1044200021F0004120E700BF50EA010208BF7047B9
:1044300030B54FF000050AE050EA010208BF7047AE
:1044400030B511F0004502D5404261EB41014FF417
:10445000806404F132045FEA915C3FF4DCAE4FF01B
:1044600003025FEADC0C18BF03325FEADC0C18BF02
:10447000033202EBDC02C2F1200300FA03FC20FA53
:1044800002F001FA03FE40EA0E0021FA02F11444A0
:10449000C1E600BF70B54FF0FF0C4CF4E06C1CEAB5
:1044A00011541DBF1CEA135594EA0C0F95EA0C0F2A
:1044B00000F0DEF82C4481EA030621EA4C5123EA9D
:1044C0004C5350EA013518BF52EA033541F48011CC
:1044D00043F4801338D0A0FB02CE4FF00005E1FB7F
:1044E00002E506F00042E0FB03E54FF00006E1FBC9
:1044F00003569CF0000F18BF4EF0010EA4F1FF040C
:10450000B6F5007F64F5407404D25FEA4E0E6D414B
:1045100046EB060642EAC62141EA55514FEAC5205C
:1045200040EA5E504FEACE2EB4F1FD0C88BFBCF5D8
:10453000E06F1ED8BEF1004F08BF5FEA500E50F189
:10454000000041EB045170BD06F0004646EA01014F
:1045500040EA020081EA0301B4EB5C04C2BFD4EB81
:104560000C0541EA045170BD41F480114FF0000E7A
:10457000013C00F3AB8014F1360FDEBF002001F0E8
:10458000004170BDC4F10004203C35DA0C341BDC62
:1045900004F11404C4F1200500FA05F320FA04F034
:1045A00001FA05F240EA020001F0004221F0004168
:1045B00010EBD37021FA04F642EB06015EEA430EDB
:1045C00008BF20EAD37070BDC4F10C04C4F120050B
:1045D00000FA04F320FA05F001FA04F240EA0200BE
:1045E00001F0004110EBD37041F100015EEA430E8F
:1045F00008BF20EAD37070BDC4F1200500FA05F2AF
:104600004EEA020E20FA04F301FA05F243EA02032D
:1046100021FA04F001F0004121FA04F220EA02003C
:1046200000EBD3705EEA430E08BF20EAD37070BD82
:1046300094F0000F0FD101F00046400041EB010162
:1046400011F4801F08BF013CF7D041EA060195F044
:10465000000F18BF704703F00046520043EB0303FE
:1046600013F4801F08BF013DF7D043EA06037047EB
:1046700094EA0C0F0CEA135518BF95EA0C0F0CD0F6
:1046800050EA410618BF52EA4306D1D181EA03013C
:1046900001F000414FF0000070BD50EA410606BF36
:1046A0001046194652EA430619D094EA0C0F02D17B
:1046B00050EA013613D195EA0C0F05D152EA0336C0
:1046C0001CBF104619460AD181EA030101F00041DE
:1046D00041F0FE4141F470014FF0000070BD41F027
:1046E000FE4141F4780170BD70B54FF0FF0C4CF401
:1046F000E06C1CEA11541DBF1CEA135594EA0C0F20
:1047000095EA0C0F00F0A7F8A4EB050481EA030E6C
:1047100052EA03354FEA013100F088804FEA033353
:104720004FF0805545EA131343EA12634FEA022221
:1047300045EA111545EA10654FEA00260EF00041E2
:104740009D4208BF964244F1FD0404F5407402D234
:104750005B084FEA3202B61A65EB03055B084FEAC5
:1047600032024FF480104FF4002CB6EB020E75EBC2
:10477000030E22BFB61A754640EA0C005B084FEAEA
:104780003202B6EB020E75EB030E22BFB61A754667
:1047900040EA5C005B084FEA3202B6EB020E75EBB2
:1047A000030E22BFB61A754640EA9C005B084FEA2A
:1047B0003202B6EB020E75EB030E22BFB61A754637
:1047C00040EADC0055EA060E18D04FEA051545EA26
:1047D00016754FEA06164FEAC30343EA52734FEACF
:1047E000C2025FEA1C1CC0D111F4801F0BD141EA48
:1047F00000014FF000004FF0004CB6E711F4801FAD
:1048000004BF01430020B4F1FD0C88BFBCF5E06F8C
:104810003FF6AFAEB5EB030C04BFB6EB020C5FEA9C
:10482000500C50F1000041EB045170BD0EF0004EF1
:104830004EEA113114EB5C04C2BFD4EB0C0541EA23
:10484000045170BD41F480114FF0000E013C90E620
:1048500045EA060E8DE60CEA135594EA0C0F08BFE4
:1048600095EA0C0F3FF43BAF94EA0C0F0AD150EAE3
:1048700001347FF434AF95EA0C0F7FF425AF104676
:1048800019462CE795EA0C0F06D152EA03353FF49E
:10489000FDAE1046194622E750EA410618BF52EA1B
:1048A00043067FF4C5AE50EA41047FF40DAF52EAEF
:1048B00043057FF4EBAE12E74FEA410212F5001216
:1048C00015D211D56FF47873B3EB625212D94FEA57
:1048D000C12343F0004343EA505311F0004F23FA41
:1048E00002F018BF404270474FF00000704750EA96
:1048F000013005D111F0004008BF6FF00040704753
:104900004FF00000704700BF80F0004002E000BFA1
:1049100081F0004142001FBF5FEA410392EA030FAA
:104920007FEA226C7FEA236C6AD04FEA1262D2EBF4
:104930001363C1BFD218414048404140B8BF5B42F9
:10494000192B88BF704710F0004F40F4000020F092
:104950007F4018BF404211F0004F41F4000121F0A8
:104960007F4118BF494292EA030F3FD0A2F10102F2
:1049700041FA03FC10EB0C00C3F1200301FA03F130
:1049800000F0004302D5494260EB4000B0F5000F53
:1049900013D3B0F1807F06D340084FEA310102F112
:1049A0000102FE2A51D2B1F1004F40EBC25008BFC4
:1049B00020F0010040EA03007047490040EB00008E
:1049C00010F4000FA2F10102EDD1B0FA80FCACF1BD
:1049D000080CB2EB0C0200FA0CF0AABF00EBC250BC
:1049E00052421843BCBFD0401843704792F0000FAA
:1049F00081F4000106BF80F400000132013BB5E7FD
:104A00004FEA41037FEA226C18BF7FEA236C21D072
:104A100092EA030F04D092F0000F08BF08467047D7
:104A200090EA010F1CBF0020704712F07F4F04D1A5
:104A3000400028BF40F00040704712F100723CBFB8
:104A400000F50000704700F0004343F0FE4040F4E2
:104A5000000070477FEA226216BF08467FEA2363A0
:104A60000146420206BF5FEA412390EA010F40F48B
:104A7000800070474FF0000304E000BF10F00043D7
:104A800048BF40425FEA000C08BF704743F09643BE
:104A900001464FF000001CE050EA010208BF7047D9
:104AA0004FF000030AE000BF50EA010208BF704760
:104AB00011F0004302D5404261EB41015FEA010C75
:104AC00002BF84460146002043F0B64308BFA3F16D
:104AD0008053A3F50003BCFA8CF2083AA3EBC2534F
:104AE00010DB01FA02FC634400FA02FCC2F120026E
:104AF000BCF1004F20FA02F243EB020008BF20F0A5
:104B00000100704702F1200201FA02FCC2F120020A
:104B100050EA4C0021FA02F243EB020008BF20EAFF
:104B2000DC7070474FF0FF0C1CEAD0521EBF1CEA2D
:104B3000D15392EA0C0F93EA0C0F6FD01A4480EA1B
:104B4000010C400218BF5FEA41211ED04FF0006304
:104B500043EA501043EA5111A0FB01310CF0004030
:104B6000B1F5000F3EBF490041EAD3715B0040EA56
:104B7000010062F17F02FD2A1DD8B3F1004F40EB26
:104B8000C25008BF20F00100704790F0000F0CF0F9
:104B9000004C08BF49024CEA502040EA51207F3ABD
:104BA000C2BFD2F1FF0340EAC250704740F4000098
:104BB0004FF00003013A5DDC12F1190FDCBF00F089
:104BC00000407047C2F10002410021FA02F1C2F137
:104BD000200200FA02FC5FEA310040F1000053EAD3
:104BE0004C0308BF20EADC70704792F0000F00F021
:104BF000004C02BF400010F4000F013AF9D040EA27
:104C00000C0093F0000F01F0004C02BF490011F4BA
:104C1000000F013BF9D041EA0C018FE70CEAD153B8
:104C200092EA0C0F18BF93EA0C0F0AD030F0004C38
:104C300018BF31F0004CD8D180EA010000F00040EC
:104C4000704790F0000F17BF90F0004F084691F0AA
:104C5000000F91F0004F14D092EA0C0F01D14202E4
:104C60000FD193EA0C0F03D14B0218BF084608D1AD
:104C700080EA010000F0004040F0FE4040F40000F7
:104C8000704740F0FE4040F4400070474FF0FF0C8A
:104C90001CEAD0521EBF1CEAD15392EA0C0F93EAD1
:104CA0000C0F69D0A2EB030280EA010C49024FEA23
:104CB000402037D04FF0805343EA111143EA1013DC
:104CC0000CF000408B4238BF5B0042F17D024FF494
:104CD000000C8B4224BF5B1A40EA0C00B3EB510F6F
:104CE00024BFA3EB510340EA5C00B3EB910F24BF58
:104CF000A3EB910340EA9C00B3EBD10F24BFA3EBDD
:104D0000D10340EADC001B0118BF5FEA1C1CE0D1A4
:104D1000FD2A3FF650AF8B4240EBC25008BF20F057
:104D2000010070470CF0004C4CEA50207F32C2BFAB
:104D3000D2F1FF0340EAC250704740F400004FF048
:104D40000003013A37E792F0000F00F0004C02BF79
:104D5000400010F4000F013AF9D040EA0C0093F043
:104D6000000F01F0004C02BF490011F4000F013B9D
:104D7000F9D041EA0C0195E70CEAD15392EA0C0F05
:104D800008D142027FF47DAF93EA0C0F7FF470AF3D
:104D9000084676E793EA0C0F04D14B023FF44CAF80
:104DA00008466EE730F0004C18BF31F0004CCAD115
:104DB00030F000427FF45CAF31F000437FF43CAF51
:104DC0005FE700BF4FF0FF3C06E000BF4FF0010C73
:104DD00002E000BF4FF0010C4DF804CD4FEA400255
:104DE0004FEA41037FEA226C18BF7FEA236C11D09F
:104DF00001B052EA530C18BF90EA010F58BFB2EB52
:104E0000030088BFC81738BF6FEAE17018BF40F0D1
:104E1000010070477FEA226C02D15FEA402C05D185
:104E20007FEA236CE4D15FEA412CE1D05DF8040B0A
:104E3000704700BF844608466146FFE70FB5FFF79D
:104E4000C9FF002848BF10F1000F0FBD4DF808ED55
:104E5000FFF7F4FF0CBF012000205DF808FB00BF46
:104E60004DF808EDFFF7EAFF34BF012000205DF8A0
:104E700008FB00BF4DF808EDFFF7E0FF94BF0120ED
:104E800000205DF808FB00BF4DF808EDFFF7D2FFEA
:104E900094BF012000205DF808FB00BF4DF808ED2D
:104EA000FFF7C8FF34BF012000205DF808FB00BFFA
:104EB00042000ED2B2F1FE4F0BD34FF09E03B3EB84
:104EC000126209D44FEA002343F0004323FA02F0B0
:104ED00070474FF00000704712F1610F01D142029C
:104EE00002D14FF0FF3070474FF00000704700BF15
:104EF00008B5074B044613B10021AFF30080054B02
:104F00001868836A03B19847204600F033F800BF61
:104F100000000000B84F000070B50E4B0E4D00248D
:104F2000ED1AAD101E46AC4204D056F8242090472E
:104F30000134F8E700F020F8084D094B0024ED1A81
:104F4000AD101E46AC4204D056F8242090470134E0
:104F5000F8E770BD6C0000206C000020700000209D
:104F60006C00002002440346934202D003F8011B68
:104F7000FAE77047FEE700BFF8B500BFF8BC08BC11
:104F80009E467047F8B500BFF8BC08BC9E46704707
:104F90000101000000000000606701000000000047
:104FA0000500000000000000802500000000000057
:104FB00008091108430000000C0000200000000058
:084FC00074B1FF7F0100000045
:104FC80002010A00006CDC02008000000000000002
:104FD80000000000000000000000000000000000C9
:104FE800000000000000000000000000B44F0000B6
:104FF80000000000000000000000000000000000A9
:105008000000000000000000000000000000000098
:105018000000000000000000000000000000000088
:105028000000000000000000000000000501000072
:08503800E1000000000000008F
:0400000300003F2D8D
:00000001FF
